:020000040800F2
:10000000184E00209D01000839350008791F0008AE
:100010005D340008F9150008E166000800000000E2
:100020000000000000000000000000005143000834
:10003000F119000800000000A53700084D4700082E
:10004000E566000885370008B7010008B701000819
:10005000B701000881380008B7010008B70100089F
:10006000B7010008B7010008B7010008B701000890
:10007000B7010008B7010008B7010008B701000880
:10008000B7010008B7010008B7010008B701000870
:10009000B7010008B7010008B7010008B701000860
:1000A000B7010008B7010008B7010008B701000850
:1000B000794B0008B7010008B7010008B701000834
:1000C000B7010008B7010008B7010008B701000830
:1000D000B7010008814B0008B7010008B70100080C
:1000E000B7010008B7010008B7010008B701000810
:1000F000B7010008B7010008B7010008B701000800
:10010000B7010008B7010008B7010008B7010008EF
:10011000B7010008B7010008B7010008B7010008DF
:1001200099190008C5190008B7010008B7010008AF
:10013000B7010008B7010008B7010008B7010008BF
:10014000B7010008B7010008B7010008B7010008AF
:10015000B7010008B7010008B7010008B70100089F
:10016000B7010008B7010008B7010008B70100088F
:10017000B7010008B7010008B7010008000000003F
:10018000891E0008B7010008DFF80CD000F0B8FAAB
:100190000048004701690008184E002006488047C3
:1001A00006480047FEE7FEE7FEE7FEE7FEE7FEE75C
:1001B000FEE7FEE7FEE7FEE7094B000889010008BD
:1001C0002DE9F05F0546002092469B46884606468C
:1001D000814640241BE0284641464746224600F01F
:1001E0006DF953465A46C01A914110D3114618462C
:1001F000224600F054F92D1A67EB01084F462246BB
:100200000120002100F04BF917EB00094E41201EA0
:10021000A4F10104DFDC484631462A464346BDE8E6
:10022000F09FD2B201E000F8012B491EFBD27047CB
:100230000022F6E710B513460A4604461946FFF7B2
:10024000F0FF204610BD2DE9FE4F804681EA0300F5
:10025000C00F0C46009021F0004123F00045B8EBA0
:100260000200A94105D24046214690461C460B4655
:10027000024623F00040104347D0270DC7F30A0081
:10028000C3F30A510290401A019040286BDAC3F37D
:10029000130040F4801B0098924620B10023D2EB5B
:1002A000030A63EB0B0B01985946C0F1400250461C
:1002B00000F0F5F806460D4650465946019A00F002
:1002C0000DF910EB08006141002487EA115284EA1D
:1002D000E7731A4340D0009A62B3019A012A4FEAA9
:1002E000075215DC001B61EB02014FF0004202EAED
:1002F0000752CDE90042001C41F5801132462B46E1
:1003000000F00DF903B0BDE8F08F40462146F9E753
:10031000001B61EB0201001C41F5801300185B41DA
:100320002018A2F5001747EB030140EAD570B61973
:100330006D4111E06D084FEA360645EAC0754FEA97
:100340000752001B61EB0201001C41F580114908B6
:100350004FEA30000019514132462B4603B0BDE848
:10036000F04F00F0CDB80098012240000023D0EB00
:10037000020263EBE073009821464FEAE074B8EBA9
:10038000000061EB0401E9E783F000435BE781F0E3
:10039000004158E72DE9F04D81EA030404F0004BD9
:1003A00021F0004514464FF0000A23F0004150EAC6
:1003B000050220D054EA01021DD0C5F30A570246B7
:1003C000C5F31303C1F31300C1F30A5640F48015BB
:1003D00043F48013A7EB0608101BD64608F2FD383D
:1003E00073EB050002D308F1010801E092185B41AC
:1003F000B8F1000F03DA00200146BDE8F08D0020BF
:100400004FF48011064684460EE0171B73EB050778
:1004100005D3121B63EB050306434CEA010C4908A4
:100420004FEA300092185B4150EA0107EDD152EAE1
:10043000030012D082EA040083EA0501084305D0D4
:10044000101BAB4106D20122002306E000224FF030
:10045000004302E06FF0010253101AEB06004CEB70
:10046000085110EB0A0041EB0B01BDE8F04D00F024
:1004700047B830B50B46014600202022012409E090
:1004800021FA02F59D4205D303FA02F5491B04FA4D
:1004900002F52844151EA2F10102F1DC30BD202A2C
:1004A00004DB203A00FA02F1002070479140C2F1CB
:1004B000200320FA03F3194390407047202A04DBFD
:1004C000203A21FA02F00021704721FA02F3D040CD
:1004D000C2F120029140084319467047202A06DBEA
:1004E000CB17203A41FA02F043EAE07306E041FA02
:1004F00002F3D040C2F120029140084319467047F0
:1005000010B5141E73F1000408DA401C41F100011B
:1005100092185B411A4301D120F0010010BD2DE972
:10052000F04D92469B4611B1B1FA81F202E0B0FA69
:1005300080F220329046FFF7B2FF04460F4640EAB1
:100540000A0041EA0B0153465A46084313D01146AC
:1005500053EA010019D0C8F140025046FFF7AEFF40
:1005600005460E46504659464246FFF798FF084357
:1005700005D0012004E020463946BDE8F08D00207A
:10058000054346EAE0762C4337430A986305E40ABC
:10059000A0EB08000022FD0A44EA47540A3002D5C5
:1005A00000200146E9E7010510196941DDE9084528
:1005B00000196941BDE8F04DA2E72DE9FE4F81EA3F
:1005C000030404F0004421F0004100944FF0000BBC
:1005D00023F0004350EA01045ED052EA03045BD0EA
:1005E000C3F30A54C1F30A552C44A4F2F334019422
:1005F000A0FB0254C1F3130141F48011C3F31303B0
:1006000043F4801301FB024400FB034E840A970A63
:1006100044EA815447EA8357A4FB076802958D0A90
:1006200005FB07854FEA932C04FB0C542705029D1C
:100630004FEA065847EA1637B5EB08056EEB070C8C
:10064000870E920E47EA811742EA8312A7FB020146
:10065000B6EB0B0164EB00042B0D43EA0C335E1880
:1006600044EB1C50DA465146E7FB0201C5F3130484
:100670004FEA0B3343EA14534FEA0432019C43EA36
:100680000603A4F10C040294009CCDE900B4FFF72A
:1006900046FF03B0BDE8F08F00200146F9E7C1F343
:1006A0000A52C1F3130140F2FF3341F480119A4220
:1006B00002DA00200146704740F233439A42A2F228
:1006C000334202DC5242FFF7F9BEFFF7E8BE0000FA
:1006D00030B5041E71F1000404DB4FF000444042C9
:1006E00064EB0101141E73F1000405DB1C464FF09E
:1006F0000043524263EB0403994208BF904230BD6D
:10070000064C074D06E0E06840F0010394E807005E
:1007100098471034AC42F6D3FFF73AFD2C77000827
:100720004C770008F0B58BB0DDF840C09E4614460B
:100730000D4606460A900991089207938DF81BC052
:100740000A980999089A079B9DF81BC06F46C7F83D
:1007500000C0CDF814E004940395029600F016FA58
:100760000BB0F0BDF0B58BB0DDF840C09E4614462E
:100770000D4606460A900991089207938DF81BC012
:100780000A980999089A079B9DF81BC06F46C7F8FD
:1007900000C0CDF814E0049403950296FFF7C2FF61
:1007A0000BB0F0BD80B586B00A46034605908DF8C3
:1007B000131005989DF813100392029300F072FE37
:1007C00005990190084600F0ADFD06B080BD00001F
:1007D00080B584B00146039000208DF80B008DF8A1
:1007E0000A0003980DF10B020191114600F062FB23
:1007F0008DF80A009DF80A00002804D0FFE70120C8
:100800008DF80A000CE0039890F82E009DF80B106C
:10081000884204D0FFE702208DF80A00FFE7FFE7D7
:100820009DF80A0004B080BD80B584B001460390F5
:1008300000208DF80B000398019100F03FFD8DF82A
:100840000B009DF80B00002804D0FFE701208DF875
:100850000B003FE00398B02100F006FC8DF80B0080
:100860000398FFF7B5FF8DF80B009DF80B000028EB
:1008700004D0FFE702208DF80B002BE0039800F076
:10088000CBF88DF80B009DF80B00002804D0FFE793
:1008900003208DF80B001DE00398002100F0ACFC54
:1008A0008DF80B009DF80B00002804D0FFE7042012
:1008B0008DF80B000EE0039800F0CAFB8DF80B00DA
:1008C0009DF80B00002804D0FFE705208DF80B00F1
:1008D000FFE7FFE79DF80B0004B080BD80B58AB04C
:1008E0000146099009980022C4F202024263099865
:1008F000082282630998406B0028029106D0FFE726
:100900000998406B012101F083F9FFE70998002164
:10091000C1630998012101640998C06B002806D0C1
:10092000FFE70998C06B012101F072F9FFE7002091
:100930000890079006900590049003900999896BA0
:1009400003910490022105910690012107910890DE
:100950000998406B03A901F03BFD0999D1F834E0F7
:10096000896B0190704601F03FFE0998C06B00282A
:1009700013D0FFE70998006C0390012004900998B8
:10098000C06B03A901F024FD0999D1F83CE0096C82
:100990000090704601F028FEFFE709980021C4F29C
:1009A0000201C165099810220266099841650998FB
:1009B000202282650998C16409984022026509983D
:1009C000416409988021816409980521416709984B
:1009D00043F20001C4F201014166099800218167D8
:1009E0000998F02280F82E200998A0F86C10099838
:1009F00080F869100998012180F86A100AB080BD5A
:100A000082B001460190009102B0704782B0014669
:100A10000190009102B0704780B584B00146039008
:100A200000208DF80B008DF80A00039A0DF10B03DE
:100A300001901046019A009111461A4600F050FAB2
:100A40008DF80A009DF80A0000280FD1FFE79DF8F5
:100A50000B0040F004008DF80B0003989DF80B206C
:100A6000002100F05BFD8DF80A00FFE79DF80A0009
:100A700004B080BD2DE9F04798B001461790179853
:100A800044300C9102F0E4FF179944310B90084672
:100A900002F0E8FF0DA94FF0280E0A9008467146B3
:100AA000FFF7C6FB00200D904FF482710E910F905E
:100AB000179890F8690000280BD1FFE700201090EC
:100AC0001798416D806D09900846099901F020FD45
:100AD00002E002201090FFE7179890F869000028C4
:100AE00003D1FFE70020119002E001201190FFE701
:100AF0004FF400701290382013900020149015903D
:100B000007211691179944310D9A0E9BDDF83CC0D0
:100B1000DDF840E0119C129D139E149FDDF8548077
:100B2000DDF85890EA46CAF81890CAF81480CAF856
:100B30001070CAF80C60CAF80850CAF80440CAF825
:100B400000E00890084611461A46634602F094FFFA
:100B500008990790084618B0BDE8F08780B586B0C0
:100B600013468C46864605908DF81310039205981F
:100B700044309DF81310039A0293CDF804C0CDF8C9
:100B800000E002F0C7FF06B080BD000070B58CB079
:100B9000DDF840C09E4614460D4606460A9009916F
:100BA000089207938DF81BC00A980028CDF814E02E
:100BB0000494039502960DD0FFE70A9840F21C01B9
:100BC000C2F200010968884204D1FFE70A98FFF7E2
:100BD00085FE1DE00A98002808D0FFE70A98002843
:100BE00004D1FFE70A98FFF70BFF10E00A980028EE
:100BF00008D0FFE70A98002804D1FFE70A98FFF71A
:100C000005FF03E001208DF82F0054E0FFE7FFE728
:100C10009DF81B00002813D0FFE70A98012180F8F7
:100C200068100A98FFF726FF40F23001C2F2000177
:100C300040F65D3EC0F6000EC1F800E0019012E003
:100C40000A98002180F868100A9800F0BDF940F277
:100C50003001C2F2000141F2210EC0F6000EC1F8CF
:100C600000E00090FFE70898002804D0FFE708980C
:100C70000A99086306E00A9841F68D31C0F6000132
:100C80000163FFE70998002804D0FFE709980A9953
:100C9000C86706E00A9841F6A131C0F60001C167B5
:100CA000FFE707980A99C1F880000A98FFF7BCFD92
:100CB0008DF82F00FFE79DF82F000CB070BD0000ED
:100CC00080B598B00A46034617908DF85B10002057
:100CD0008DF85A008DF85800ADF856009DF85B006D
:100CE00006281492139300F3E080FFE717989DF80D
:100CF0005B100844C078002807D1FFE717989DF8DB
:100D00005B1000F0AFFA129006E017989DF85B10A8
:100D100000F0C6F91190FFE7179890F82E003228DE
:100D200008DCFFE71798016B90F82E00C0F5807083
:100D30008847FFE7179800F0F5FA8DF85A001798E2
:100D4000D0F85CE0016E704601F0E2FB179890F875
:100D50002D0000282AD0FFE740F23000C2F2000048
:100D600000681799FC2200231090084611461A4685
:100D7000109B98471799C96F00290F9008D0FFE77B
:100D80001798C06F05210E9008460E998847FFE717
:100D900040F23000C2F200000068179900220D9066
:100DA000084611460D9B98470C90FFE71798C06FB7
:100DB00005210B9008460B99884740F23000C2F29B
:100DC00000000168DDF85CE0012200230A90704613
:100DD000099111461A46099B98471799C96F19221C
:100DE0000890104688470A9801681798FF220DF16D
:100DF00056030791114606921A46DDF81CE005934A
:100E0000F0470A990A68179BDDF814E00EF1010C0F
:100E100004901846069903926246039B98470A99E4
:100E20000A68179BDDF814C00CF1020E02901846F8
:100E3000069901927246019B98471799CA6D096EEF
:100E40000090104601F0D0FB9DF8560017998A7863
:100E500001EB8201C8601798817800EB8100C168BE
:100E60009DF8572042EA0121C1601798817800EB74
:100E70008100C1689DF8582042EA0121C16017989D
:100E8000817800EB8100C068B0F5000F09DBFFE757
:100E90001798817800EB8100C16801F17F41C16042
:100EA000FFE7179841788170FFE79DF85A0018B066
:100EB00080BD000080B586B00A46034605900491C7
:100EC000059804994FF0030C03916146DDF80CC0BE
:100ED00002926246019300F003F806B080BD000064
:100EE00080B590B013468C4686460F908DF83B1027
:100EF0000D9200208DF833000F980B93CDF828C089
:100F0000CDF824E000F00EFA8DF833009DF83300A0
:100F100000284DD1FFE70F98C16D006E089008467C
:100F2000089901F0F5FA40F23000C2F200000168C1
:100F3000DDF83CE09DF83B20012363F31F12002302
:100F400007907046069111461A46DDF818E00593A1
:100F5000F0478DF833009DF8330040008DF83300E2
:100F6000079801680F98059A04911146049B9847C9
:100F70009DF8331008438DF833009DF8330040008E
:100F80008DF833000F98C06F0A210390084603992B
:100F90008847079801680F980D9AFF230291194618
:100FA000029B98479DF8331008438DF83300FFE704
:100FB0000F98C16D006E01900846019901F014FB75
:100FC0009DF8330010B080BD80B586B00146059015
:100FD00005984430049102F03BFD0599443103909B
:100FE000084602F0ADFD059991F8691000290290BC
:100FF00009D1FFE70598416D806D01900846019980
:1010000001F086FA08E00598416D806D0090084671
:10101000009901F0E9FAFFE7002006B080BD00006A
:1010200080B586B013468C46864605908DF8131021
:101030000392059844309DF81310039A0293CDF85B
:1010400004C0CDF800E002F085FD06B080BD0000D0
:1010500080B582B0014601900198F02200911146BE
:10106000FFF7A0FB02B080BD80B586B00A460346FC
:1010700005908DF813109DF81300059981F82E0046
:1010800005989DF813104FF0030C03916146DDF8AD
:101090000CC002926246019300F040FA06B080BD97
:1010A00080B586B00A46034604908DF80F100020E4
:1010B0008DF80E009DF80F0000280292019305D0D4
:1010C000FFE79DF80F00042814D1FFE79DF80F00FB
:1010D000042806D1FFE79DF80F0004388DF80F00B3
:1010E000FFE7049801210091009A00F017FA8DF8AB
:1010F0000E006CE09DF80F00012805D0FFE79DF879
:101100000F00052818D1FFE79DF80F00052806D12C
:10111000FFE79DF80F0004388DF80F00FFE79DF8FA
:101120000F0040008DF80F0004980121232200F0E9
:10113000F5F98DF80E0049E09DF80F00022805D062
:10114000FFE79DF80F00062818D1FFE79DF80F0074
:10115000062806D1FFE79DF80F0004388DF80F0030
:10116000FFE79DF80F0040008DF80F000498012163
:10117000452200F0D3F98DF80E0026E09DF80F000F
:10118000032805D0FFE79DF80F00072818D1FFE7D7
:101190009DF80F00072806D1FFE79DF80F000438DF
:1011A0008DF80F00FFE79DF80F0040008DF80F004D
:1011B00004980121672200F0B1F98DF80E0003E0D8
:1011C00002208DF8170012E0FFE7FFE7FFE7049821
:1011D0009DF80F1008440121C17004989DF80F205C
:1011E000104401719DF80E008DF81700FFE79DF87F
:1011F000170006B080BD000080B584B00A460346E3
:1012000003908DF80B1000208DF80A008DF809006E
:10121000039802210DF10A0C019262460093FFF738
:101220005FFE8DF809009DF80900002816D1FFE740
:101230009DF80A0000F078008DF80A009DF80B0078
:101240009DF80A1008438DF80A0003989DF80A20BB
:10125000022100F063F98DF80900FFE79DF809000D
:1012600004B080BD80B586B00A46034604908DF870
:101270000F109DF80F0008280292019304DBFFE78E
:1012800001208DF8170015E09DF80F0004994870B3
:1012900004989DF80F1008440021C17004989DF82F
:1012A0000F1009010831CAB2012100F037F98DF899
:1012B0001700FFE79DF8170006B080BD80B584B029
:1012C0000146039000208DF80B008DF80A0003986A
:1012D000FE220191114600F0E5F88DF80B009DF813
:1012E0000B00002816D1FFE703980DF10A01FFF764
:1012F000E1FD8DF80B009DF80B00002805D1FFE7FC
:101300009DF80A00F02804D0FFE701208DF80B00BB
:10131000FFE7FFE70398F02180F82E109DF80B00FF
:1013200004B080BD80B58EB001460C9000200B90BB
:101330000A90099008900C98D0F880000028079136
:1013400006D0FFE70C98D0F8800080470A90FFE7AE
:101350000C98406B002804D1FFE705208DF837007A
:101360009BE0FFE70C98416B806B0690084606995E
:1013700001F0AAF8002801D0FFE73EE00C98D0F871
:101380008000002828D0FFE70C98D0F88000804724
:101390000B900B98DDF828E0704508D2FFE70A981B
:1013A000C0430B99084400210991089006E00B986E
:1013B0000A99401A002109910890FFE708980999B5
:1013C000653871F100010590049104D3FFE7012015
:1013D0008DF8370061E00FE00B9801300B900B980F
:1013E00041F68121C0F20601884204D3FFE70220C2
:1013F0008DF8370051E0FFE7B4E7FFE70C98416B49
:10140000806B03900846039901F05EF8002801D133
:10141000FFE73EE00C98D0F88000002828D0FFE7D6
:101420000C98D0F8800080470B900B98DDF828E0EE
:10143000704508D2FFE70A98C0430B990844002181
:101440000991089006E00B980A99401A0021099129
:101450000890FFE708980999653871F1000102903A
:10146000019104D3FFE703208DF8370015E00FE06A
:101470000B9801300B900B9841F68121C0F20601C8
:10148000884204D3FFE704208DF8370005E0FFE72A
:10149000B4E700208DF83700FFE79DF837000EB065
:1014A00080BD000080B588B00A46034607908DF8DD
:1014B0001B1000208DF81A00079805920493FFF77F
:1014C00031FF8DF81A009DF81A0000281AD1FFE7A5
:1014D0000798C16D006E03900846039901F018F853
:1014E00040F23000C2F20000006807999DF81BE04E
:1014F0000022029008467146DDF808E0F0478DF8BA
:101500001A00FFE70798C16D006E01900846019927
:1015100001F06AF89DF81A0008B080BD80B58CB063
:1015200013468C4686460B908DF82B108DF82A209A
:1015300000208DF829000B980993CDF820C0CDF834
:101540001CE0FFF7EFFE8DF829009DF82900002828
:1015500046D1FFE70B98C16D006E069008460699CC
:1015600000F0D6FF40F23000C2F200000168DDF862
:101570002CE09DF82B2042F050020023059070468D
:10158000049111461A46DDF810E00393F0478DF8F8
:1015900029009DF8290040008DF829000598016870
:1015A0000B98039A02911146029B98479DF82910C7
:1015B00008438DF829009DF8290040008DF8290086
:1015C000059801680B989DF82A2001911146039A0D
:1015D000019B98479DF8291008438DF82900FFE7E3
:1015E0000B98C16D006E00900846009900F0FCFF5A
:1015F0009DF829000CB080BDFFE7FEE780B584B000
:101600000A460346039002910398029901920093BF
:1016100000F084F804B080BD80B584B00A4603466B
:1016200003900291039802990192009300F0A6F8AA
:1016300004B080BD80B586B013468C4686468DF8D2
:101640001700049103929DF817000499039A0293DE
:10165000CDF804C0CDF800E000F0D4F806B080BDAD
:1016600080B584B00A46034603900291039802991C
:101670000192009300F010F904B080BD80B500F035
:1016800047F980BD80B500F049F980BD80B584B0D0
:101690000A4603460390029103980299019200932F
:1016A000FFF7ACFF04B080BD80B584B00A460346A6
:1016B000039002910398029901920093FFF7ACFF07
:1016C00004B080BD80B586B013468C4686468DF842
:1016D0001700049103929DF817000499039A02934E
:1016E000CDF804C0CDF800E0FFF7A4FF06B080BD40
:1016F00080B584B00A46034603900291039802998C
:1017000001920093FFF7ACFF04B080BD80B5FFF7F6
:10171000B5FF80BD80B5FFF7B5FF80BD86B00A4636
:101720000346059004910020ADF80C000290019250
:101730000093FFE70298049988421BD2FFE79DF8C7
:101740000D000599029A895C48408DF80F00BDF89C
:101750000C009DF80F1047F29022C0F6000232F8FC
:10176000111081EA0020ADF80C00FFE7029801306B
:101770000290DFE7BDF80C0006B0704780B584B07A
:101780000A4603460390029103980299019200933E
:1017900000F002F804B080BD80B588B00A46034668
:1017A0000790069100200590049003920293019007
:1017B00000F020F801980590FFE705980699884207
:1017C00010D2FFE707980599405C0490049943F212
:1017D0000000C4F2020000F07BFDFFE70598013035
:1017E0000590EAE743F20000C4F2020000F07CFD3D
:1017F00008B080BD80B543F20000C4F2020000F0E2
:101800007BFD80BD80B589B013468C4686468DF839
:1018100023000791069200208DF816000490039390
:10182000CDF808C0CDF804E0FFE704980699884297
:101830002DD2FFE79DF816000799049A895C48406D
:101840008DF817009DF8230001460728009104D069
:10185000FFE7009831280AD013E09DF8170047F2FF
:101860009041C0F60001085C8DF816000AE09DF872
:10187000170047F29051C0F60001085C8DF8160081
:1018800000E0FFE7FFE7049801300490CDE79DF802
:10189000160009B080BD000086B00A4603460590D8
:1018A0000491002003908DF80B00039001920093A7
:1018B000FFE70398049988420DD2FFE70598039942
:1018C000405C9DF80B1008448DF80B00FFE703986F
:1018D00001300390EDE79DF80B00C0F580708DF8A6
:1018E0000B009DF80B0006B07047000080B582B079
:1018F00043F20000C4F2020000F0C8FC40F2040E03
:10190000C2F2000E01218EF80010019002B080BDDD
:1019100040F20400C2F200000078704780B5FFF783
:10192000E5FF4FF4805000F04FFB40F20400C2F29C
:1019300000004FF0000E80F800E080BD80B500F0A0
:101940000DF880BD80B500F017F880BD80B5FFF7B9
:10195000F5FF80BD80B5FFF7F5FF80BD80B500F0D5
:10196000E9FF002807D0FFE700F0D2FF00F062FF98
:1019700000F042FFFFE780BD80B500F0E3FF0028E4
:1019800008D0FFE700F04CFF00F040FF04F0B6FF86
:1019900004F0A0FF80BD000080B546F20040C4F214
:1019A000020000F0B5FC00280BD0FFE746F2004033
:1019B000C4F20200002100F0B5FC002801D0FFE7CE
:1019C000FFE780BD80B546F20040C4F2020000F09F
:1019D0009FFC00280BD0FFE746F20040C4F2020053
:1019E000012100F09FFC002801D0FFE7FFE780BD48
:1019F0007047000080B500F005F880BD80B5FFF7A6
:101A0000F9FF80BD80B584B04FF0804001F062FAEC
:101A1000002819D0FFE74FF08040039001F03AFA18
:101A200040F6D46EC2F2000ECEF8000040F6E4603C
:101A3000C2F2000090F800E00EF1010E80F800E024
:101A4000039801F0FFF9FFE74FF0804001F04CFAF6
:101A5000002819D0FFE74FF08040029001F022FAF1
:101A600040F6D46EC2F2000ECEF8040040F6E460F8
:101A7000C2F2000090F801E00EF1010E80F801E0E2
:101A8000029801F0E9F9FFE74FF0804001F036FAE3
:101A9000002819D0FFE74FF08040019001F00AFACA
:101AA00040F6D46EC2F2000ECEF8080040F6E460B4
:101AB000C2F2000090F802E00EF1010E80F802E0A0
:101AC000019801F0D3F9FFE74FF0804001F020FAD0
:101AD000002819D0FFE74FF08040009001F0F2F9A4
:101AE00040F6D46EC2F2000ECEF80C0040F6E46070
:101AF000C2F2000090F803E00EF1010E80F803E05E
:101B0000009801F0BDF9FFE704B080BD80B582B058
:101B1000014601900198009100F04CF802B080BDA0
:101B200080B582B0014601900198009100F01EF846
:101B300002B080BD80B584B00146039003980028B0
:101B4000029110D0FFE7FFE70398411E03910028A0
:101B500008D0FFE74FF47A7000F008F800F016FAAA
:101B60000190F1E7FFE704B080BD000080B584B0CC
:101B70000146039003980028029105D0FFE70398DF
:101B800002F034FD0190FFE704B080BD80B582B063
:101B90000146019001980091FFF7B8FF02B080BDA7
:101BA00080B582B00146019001980091FFF7B8FF1F
:101BB00002B080BD80B584B0014603900398002830
:101BC00002910FD0FFE702F0F7FC002805D1FFE7F4
:101BD000039802F0F5FC019003E00398FFF7AAFFD9
:101BE000FFE7FFE704B080BD80B584B00A46034636
:101BF00003908DF80B1003989DF80B100192009341
:101C000000F01AF804B080BD80B500F0E7F880BDA0
:101C100080B584B00A46034603908DF80B100398F4
:101C20009DF80B1001920093FFF7DEFF04B080BD1A
:101C300080B5FFF7E9FF80BD80B584B00A46034652
:101C400003908DF80B1003980021C4F20201884222
:101C5000019200930ED1FFE79DF80B00002804D0FD
:101C6000FFE7012000F0C4F903E0012000F09CF937
:101C7000FFE7B1E0039840F20041C4F2020188425C
:101C80000ED1FFE79DF80B00002804D0FFE70220EB
:101C900000F0AEF903E0022000F086F9FFE79BE0D8
:101CA000039840F60001C4F2020188420ED1FFE71A
:101CB0009DF80B00002804D0FFE7042000F098F9FD
:101CC00003E0042000F070F9FFE785E0039840F698
:101CD0000041C4F2020188420ED1FFE79DF80B00DB
:101CE000002804D0FFE7082000F082F903E0082074
:101CF00000F05AF9FFE76FE0039841F20001C4F2E7
:101D0000020188420ED1FFE79DF80B00002804D0A5
:101D1000FFE7102000F06CF903E0102000F044F918
:101D2000FFE759E0039841F20041C4F20201884202
:101D30000ED1FFE79DF80B00002804D0FFE720201C
:101D400000F056F903E0202000F02EF9FFE743E011
:101D5000039841F60001C4F2020188420ED1FFE768
:101D60009DF80B00002804D0FFE7402000F040F968
:101D700003E0402000F018F9FFE72DE0039841F65A
:101D80000041C4F2020188420ED1FFE79DF80B002A
:101D9000002804D0FFE7802000F02AF903E080202B
:101DA00000F002F9FFE717E0039842F20001C4F2E5
:101DB0000201884210D1FFE79DF80B00002805D0F2
:101DC000FFE74FF4807000F013F904E04FF48070E7
:101DD00000F0EAF8FFE7FFE704B080BD80B582B00D
:101DE0000020C4F2020001210191FFF725FF40F21B
:101DF0000040C4F202000199FFF71EFF40F6000008
:101E0000C4F202000199FFF717FF40F60040C4F248
:101E100002000199FFF710FF41F20000C4F2020036
:101E20000199FFF709FF41F20040C4F20200019955
:101E3000FFF702FF41F60000C4F202000199FFF72C
:101E4000FBFE41F60040C4F202000199FFF7F4FEE8
:101E500042F20000C4F202000199FFF7EDFE4FF4D8
:101E6000804000F09BF902B080BD000040F22C00E1
:101E7000C2F20000007843F61061C2F200010A6865
:101E8000104408607047000080B582B040F6000042
:101E9000C5F2060000F09CFE00280ED0FFE740F6D9
:101EA0000000C5F20600019000F05CFE019800F011
:101EB00063FE019800F06CFEFFE740F60000C5F2FB
:101EC000060000F071FE002807D0FFE740F6000092
:101ED000C5F2060000F03CFEFFE740F60000C5F248
:101EE000060000F06BFE00280DD0FFE740F6000072
:101EF000C5F2060000F076FE40F6E86EC2F2000E73
:101F0000CEF80000FFE702B080BD00001EF0040F15
:101F10000CBFEFF30880EFF3098000F001B87047C1
:101F200082B00146019040F6EC60C2F2000000224F
:101F3000C261826142610261C2608260426002608D
:101F4000019A12680260019A52684260019A92688E
:101F50008260019AD268C260019A12690261019A94
:101F600052694261019A92698261019AD269C261A1
:101F700001BE009102B0704780B5FFF7C7FFFFE7D1
:101F8000FEE7000080B500F005F880BD80B5FFF7E2
:101F9000F9FF80BD80B543F20000C4F2000000F0FC
:101FA000DFFB002080BD000082B001460190019857
:101FB00043F63002C4F20202136823EA0000106004
:101FC000009102B07047000084B00146039003986E
:101FD00043F63002C4F2020213681843106010681E
:101FE000039A1040029002980191009004B070474B
:101FF00084B001460390039843F63002C4F2020213
:102000001368184310601068039A104002900298F9
:102010000191009004B0704782B001460190019890
:1020200043F61002C4F202021368184310600091D4
:1020300002B0704782B001460190019843F6100249
:10204000C4F20202136823EA00001060009102B09B
:102050007047000082B001460190019843F64002AB
:10206000C4F20202136823EA00001060009102B07B
:102070007047000082B001460190019843F640028B
:10208000C4F20202136823EA00001060009102B05B
:102090007047000084B001460390039843F6400265
:1020A000C4F202021368184310601068039A1040CB
:1020B000029002980191009004B0704784B00146EC
:1020C0000390039843F64002C4F2020213681843D7
:1020D00010601068039A10400290029801910090DD
:1020E00004B0704782B001460190019843F6200287
:1020F000C4F20202136818431060009102B07047E6
:1021000082B001460190019843F62002C4F2020217
:10211000136818431060009102B0704782B0014606
:102120000190019843F62002C4F20202136823EAE8
:1021300000001060009102B07047000082B00146BC
:102140000190019843F62002C4F20202136823EAC8
:1021500000001060009102B07047000082B001469C
:102160000190019843F64402C4F20202136823EA84
:1021700000001060009102B07047000082B001467C
:102180000190019843F64402C4F20202136823EA64
:1021900000001060009102B07047000084B001465A
:1021A0000390039843F64402C4F2020213681843F2
:1021B00010601068039A10400290029801910090FC
:1021C00004B0704784B001460390039843F644027C
:1021D000C4F202021368184310601068039A10409A
:1021E000029002980191009004B0704784B00146BB
:1021F0000390039843F64402C4F2020213681843A2
:1022000010601068039A10400290029801910090AB
:1022100004B0704782B001460190019843F6240251
:10222000C4F20202136818431060009102B07047B4
:1022300082B001460190019843F62402C4F20202E2
:10224000136818431060009102B0704782B00146D5
:102250000190019843F62402C4F20202136823EAB3
:1022600000001060009102B07047000082B001468B
:102270000190019843F62402C4F20202136823EA93
:1022800000001060009102B07047000080B584B07B
:102290000146039001208DF80B00039843F20002E1
:1022A000C4F202029042019109D1FFE74FF480503D
:1022B0000090FFF7B1FE0098FFF7BCFE03E000209E
:1022C0008DF80B00FFE79DF80B0004B080BD000007
:1022D00084B00A460346039002910298039908606D
:1022E0000192009304B0704782B0014601900198BA
:1022F0000068009102B0704782B0014601900198D9
:10230000826842F001028260009102B070470000D2
:1023100082B00146019001980068C0F3401000911E
:1023200002B0704784B00A460346039002910398B6
:10233000029947F2882CC0F6000C1CF80110405896
:10234000C0F300100192009304B0704782B00146C0
:102350000190019843F61442C4F20102106000910A
:1023600002B0704743F60040C4F20200016841F435
:10237000806101607047000043F60040C4F2020033
:10238000016841F4007101607047000043F60040AD
:10239000C4F20200016841F48071016070470000DE
:1023A00043F60040C4F20200006800F00F007047DE
:1023B00082B00146019043F60040C4F20200026878
:1023C00022F00F02019B1A430260009102B0704795
:1023D00080B588B00A460346079006910020059014
:1023E00004900698006890FAA0F0B0FA80F005908A
:1023F00003920293FFE7069800680599C8400028F9
:102400004AD0FFE7069800680599012202FA01F117
:1024100008400490049800283AD0FFE707980499F0
:10242000069A526800F004F906984068012805D021
:10243000FFE706984068022807D1FFE7079804994C
:10244000069A926800F06CF9FFE707980499069ADB
:10245000126900F045F906984068022817D1FFE795
:10246000049890FAA0F0B0FA80F0072807D8FFE7A8
:1024700007980499069A526900F074F806E00798E4
:102480000499069A526900F08DF8FFE7FFE7FFE72D
:10249000059801300590AEE706984068012805D000
:1024A000FFE70698406802280AD1FFE707980699D7
:1024B0000A68C96801911146019A00F0F9F8FFE72E
:1024C000012008B080BD000084B00A460346039096
:1024D00002910398006902990840401AB0FA80F00E
:1024E00040090192009304B07047000084B00A468E
:1024F0000346039002910398006902990840401A2C
:10250000B0FA80F040090192009304B070470000D7
:1025100084B00A460346039002910298000403998E
:1025200088610192009304B07047000084B00A46AD
:102530000346039002910298000403998861019276
:10254000009304B07047000084B00A46034603902D
:10255000029102980004039988610192009304B0EB
:102560007047000080B586B013468C4686460590BD
:10257000049103920598006A049991FAA1F1B1FAC5
:1025800081F189000F228A409043039A02FA01F1F7
:102590000843059908620293CDF804C0CDF800E025
:1025A00006B080BD80B586B013468C468646059041
:1025B000049103920598406A0499090A91FAA1F1DD
:1025C000B1FA81F189000F228A409043039A02FAFE
:1025D00001F10843059948620293CDF804C0CDF893
:1025E00000E006B080BD000084B00A4603460390B8
:1025F00002910298039988610192009304B0704798
:1026000084B00A46034603900291029803998861B8
:102610000192009304B0704784B00A4603460390C9
:1026200002910298039988610192009304B0704767
:1026300080B586B013468C46864605900491039279
:1026400005980068049991FAA1F1B1FA81F1490065
:1026500003228A409043039A02FA01F10843059944
:1026600008600293CDF804C0CDF800E006B080BD4C
:1026700080B586B013468C46864605900491039239
:1026800005980068049991FAA1F1B1FA81F1490025
:1026900003228A409043039A02FA01F10843059904
:1026A00008600293CDF804C0CDF800E006B080BD0C
:1026B00080B586B013468C468646059004910392F9
:1026C0000598406804998843039A51430843059943
:1026D00048600293CDF804C0CDF800E006B080BD9C
:1026E00080B586B013468C468646059004910392C9
:1026F0000598C068049991FAA1F1B1FA81F14900F5
:1027000003228A409043039A02FA01F10843059993
:10271000C8600293CDF804C0CDF800E006B080BDDB
:1027200080B586B013468C46864605900491039288
:1027300005988068049991FAA1F1B1FA81F14900F4
:1027400003228A409043039A02FA01F10843059953
:1027500088600293CDF804C0CDF800E006B080BDDB
:1027600082B00146019001984AF6AA2202600091C7
:1027700002B0704784B00A46034603900291039862
:102780000299B0FBF1F001384EF21401CEF20001D3
:1027900008604EF21800CEF20000002101604EF2F7
:1027A0001000CEF20000052101600192009304B0F8
:1027B0007047000047F20000C4F20000016841F4D5
:1027C000807101607047000047F20400C4F200000D
:1027D0000068C0F38000704782B00146019047F264
:1027E0000000C4F20000026822F48042019B1A43F8
:1027F0000260009102B0704743F60C00C4F2020080
:10280000016841F4000101607047000043F60C00CC
:10281000C4F20200016841F4002101607047000029
:1028200043F60C00C4F20200016821F4006101606B
:102830007047000043F60C00C4F20200016841F446
:10284000006101607047000043F67000C4F20200AE
:10285000016841F4004101607047000043F67000D8
:10286000C4F20200016841F4803101607047000049
:1028700043F60800C4F20200006800F0F000704760
:1028800043F60800C4F20200006800F4E05070470C
:1028900043F60800C4F20200006800F4604070478C
:1028A00043F60800C4F20200006800F00C00704714
:1028B00043F60800C4F20200006800F00C00704704
:1028C00080B582B001460190009100F0ABFF019904
:1028D00008600198006800F067FF0199486001985E
:1028E000406800F077FF019988600198406800F027
:1028F00085FF0199C86002B080BD000043F600006A
:10290000C4F20200016841F48031016070470000A8
:1029100043F60000C4F20200016841F48031016016
:102920007047000043F60000C4F202000068C0F3E4
:102930004040704743F60C00C4F202000068C0B289
:10294000C009704743F60C00C4F202000068C0F3EF
:10295000C000704743F67400C4F20200016841F001
:10296000010101607047000043F67400C4F20200E8
:102970000068C0F340007047B0B588B09C469646EA
:102980000C460546079006910592049343F6040011
:10299000C4F20200016848F20002CFF2BF02114007
:1029A000079A069B1A43059B42EA8312049B1A432B
:1029B00011430160CDF80CC0CDF808E001940095FA
:1029C00008B0B0BDB0B588B09C4696460C460546EA
:1029D000079006910592049343F60400C4F20200A6
:1029E000016848F20002CFF6BF721140079A069BB9
:1029F0001A43059B42EA831211430160016821F4E6
:102A00004031049A11430160CDF80CC0CDF808E0C4
:102A10000194009508B0B0BD43F60000C4F2020076
:102A2000016841F0807101607047000043F60400C6
:102A3000C4F20200006800F03F00704743F6040053
:102A4000C4F20200006800F48000704743F60400FE
:102A5000C4F202000068C0F38810704743F6040017
:102A6000C4F20200006800F44030704743F60000F2
:102A7000C4F202000068C0F34060704743F6700083
:102A8000C4F20200016821F4803101607047000047
:102A900082B00146019043F60800C4F202000268C9
:102AA00022F0F002019B1A430260009102B07047CD
:102AB00082B00146019043F60800C4F202000268A9
:102AC00022F4E052019B1A430260009102B0704769
:102AD00082B00146019043F60800C4F20200026889
:102AE00022F46042019B1A430260009102B07047D9
:102AF00082B00146019043F67000C4F20200026801
:102B000022F44072019B1A430260009102B07047A8
:102B100082B00146019043F60800C4F20200026848
:102B200022F4F812019B1A430260009102B0704730
:102B300082B00146019043F60800C4F20200026828
:102B400022F00302019B1A430260009102B0704719
:102B500082B00146019001986FF02002426000911E
:102B600002B0704782B00146019001986FF04002B8
:102B70004260009102B0704782B001460190019816
:102B8000026822F004020260009102B07047000067
:102B900082B0014601900198026842F0040202608E
:102BA000009102B07047000082B001460190019888
:102BB0004068C0F34010009102B0704782B00146F7
:102BC00001900198406800F00100009102B0704748
:102BD00082B00146019001984068C0F380100091D6
:102BE00002B0704782B00146019001988068009160
:102BF00002B0704780B586B00146059000208DF880
:102C00001300059843F20002C4F2010290420391BE
:102C10000CD1FFE74FF480500290FFF7FBFA0298C7
:102C2000FFF714FB01208DF81300FFE7059843F62A
:102C30000001C4F2000188420CD1FFE74FF480404C
:102C40000190FFF74FFA0198FFF768FA01208DF81D
:102C50001300FFE7059843F60041C4F200018842E3
:102C60000CD1FFE74FF400400090FFF73BFA0098CB
:102C7000FFF754FA01208DF81300FFE79DF81300C9
:102C800006B080BD82B0014601900198026842F012
:102C900040020260009102B07047000080B586B02B
:102CA0000A4603460590049100208DF80F00059810
:102CB0000292019300F058F8002837D1FFE70598F9
:102CC00000684FF6BF71884304990A684B68D1F8D1
:102CD00008C0D1F80CE01A4342EA0C0242EA0E02A4
:102CE0000B691A434B691A438B691A43CB691A4320
:102CF000096A11430843059908600598406820F067
:102D000004000499C98A0843059948600498006A38
:102D1000B0F5005F06D1FFE705980499496A00F015
:102D200037F8FFE701208DF80F00FFE70598C1692C
:102D300021F40061C1619DF80F0006B080BD000064
:102D400082B0014601900198806800F00100009176
:102D500002B0704782B00146019001988068C0F3CC
:102D60004000009102B0704782B001460190019886
:102D70000068C0F38010009102B0704782B0014635
:102D800001900198C068C0B2009102B07047000085
:102D900084B00A46034603900291BDF808000399E7
:102DA00008610192009304B07047000084B00A46A5
:102DB0000346039002910398406820F010000299A6
:102DC0000843039948600192009304B070470000E3
:102DD00085B00A46034604908DF80F1004980C3015
:102DE00002909DF80F00029908700192009305B0BF
:102DF0007047000082B001460190019804280091BC
:102E000009D1FFE74EF21000CEF20000016841F058
:102E10000401016008E04EF21000CEF200000168EB
:102E200021F004010160FFE702B0704782B0014663
:102E30000190019840F20002C2F20002106000917D
:102E400002B0704782B00146019001986FF0020213
:102E50000261009102B0704782B001460190019872
:102E60006FF004020261009102B0704782B0014627
:102E7000019001986FF008020261009102B0704762
:102E800082B00146019001986FF01002026100913A
:102E900002B0704782B0014601900198406B0091EA
:102EA00002B0704782B0014601900198806B00919A
:102EB00002B0704782B0014601900198C06B00914A
:102EC00002B0704782B0014601900198006C0091F9
:102ED00002B0704782B00146019001980069C0F3CA
:102EE0004000009102B0704782B001460190019805
:102EF0000069C0F38000009102B0704782B00146C3
:102F0000019001980069C0F3C000009102B07047C1
:102F100082B00146019001980069C0F30010009151
:102F200002B0704782B00146019001986FF0200214
:102F30000260009102B0704782B001460190019892
:102F40006FF040020260009102B0704782B001460B
:102F5000019001986FF040020260009102B070474A
:102F600082B0014601900198026922F49042026108
:102F70000198426922F02A024261009102B0704732
:102F800080B58AB00146099001208DF82300099888
:102F900041F20002C4F201029042079108D1FFE71A
:102FA00010200690FFF744F90698FFF75FF95CE000
:102FB000099844F20041C4F20001884209D1FFE7B8
:102FC0004FF400300590FFF79BF80598FFF7B6F82F
:102FD0004AE0099844F60001C4F20001884209D190
:102FE000FFE74FF480200490FFF78AF80498FFF77A
:102FF000A5F838E0099841F20041C4F20101884285
:1030000008D1FFE720200390FFF712F90398FFF79C
:103010002DF927E0099844F60041C4F200018842E6
:1030200009D1FFE74FF400200290FFF769F80298FA
:10303000FFF784F815E0099845F20001C4F2000199
:10304000884209D1FFE74FF480100190FFF758F84C
:103050000198FFF773F803E000208DF82300FFE7E5
:10306000FFE7FFE7FFE7FFE7FFE79DF823000AB070
:1030700080BD000082B0014601900198C26822F034
:103080004002C260009102B07047000082B0014669
:1030900001900198C26822F08002C260009102B0E3
:1030A0007047000082B0014601900198C26842F466
:1030B0000052C260009102B07047000082B0014629
:1030C00001900198C26842F02002C260009102B0F3
:1030D0007047000082B0014601900198C26842F03A
:1030E0004002C260009102B07047000082B0014609
:1030F00001900198C26842F08002C260009102B063
:103100007047000080B58AB00A46034609900891CE
:1031100000208DF81F00069009980192009300F09E
:10312000B5F800287CD1FFE70998C06849F20C6126
:10313000884308994A68CB68D1F810C089691A4356
:1031400042EA0C02114308430999C860099808999A
:10315000896800F059F909980899496900F042F91D
:1031600002A8FFF7ADFB099841F20001C4F201018A
:10317000884203D1FFE7059806903CE0099844F2A5
:103180000041C4F20001884203D1FFE70498069091
:1031900030E0099844F60001C4F20001884203D1EE
:1031A000FFE70498069024E0099841F20041C4F238
:1031B0000101884203D1FFE70598069018E00998BD
:1031C00044F60041C4F20001884203D1FFE70498AD
:1031D00006900CE0099845F20001C4F20001884213
:1031E00003D1FFE70498069000E0FFE7FFE7FFE761
:1031F000FFE7FFE7FFE70698002810D0FFE70898F1
:10320000006800280BD0FFE701208DF81F00099807
:103210000699089A1368926900F07EF8FFE7FFE7C5
:103220009DF81F000AB080BD82B001460190019850
:103230000068C0F34010009102B0704782B00146B0
:10324000019001980068C0F38010009102B07047AF
:1032500082B00146019001980068C0F3801000918F
:1032600002B0704782B00146019001980068C0B278
:10327000C009009102B0704782B0014601900198E8
:103280000068C0B2C009009102B0704782B0014628
:1032900001900198C068C0F34030009102B07047BF
:1032A00082B0014601900198C068C0F340100091BF
:1032B00002B0704782B0014601900198C068C0F327
:1032C0008010009102B0704782B0014601900198D1
:1032D000C068C0F38010009102B0704782B0014610
:1032E00001900198C068C0B2C009009102B0704757
:1032F00082B0014601900198C068C0B2C009009137
:1033000002B0704782B00146019001984068C0B297
:10331000009102B070470000B0B58CB09C46964654
:103320000C4605460B900A91099208930998B0F54E
:10333000004FCDF81CC0CDF818E00594049527D1B6
:10334000FFE70A981921484308994900B0FBF1F0BA
:1033500048F21F51C5F2EB11A0FB01235B094FEAB4
:10336000031C4FF0640E03FB1E00322303EBC0006E
:10337000A0FB0101F82303EA51130CEB4303C1F353
:103380004211194489B20B9B99600390029226E086
:103390000A981921484308998900B0FBF1F048F2D6
:1033A0001F51C5F2EB11A0FB01235B094FF0640C28
:1033B00003FB1C004FF0320C0CEB0010A0FB0101D2
:1033C0004FF0F00C0CEA511C0CEB0313C1F343114A
:1033D000194489B20B9B996001900092FFE70CB0F1
:1033E000B0BD000084B00A460346039002910398E2
:1033F000406920F4407002990843039948610192A2
:10340000009304B07047000084B00A46034603905E
:1034100002910398006920F44050029908430399EF
:1034200008610192009304B07047000084B00A461E
:10343000034603908DF80B109DF80B00039948602C
:103440000192009304B0704782B001460190019848
:103450006FF001028260009102B07047FFE7FEE763
:1034600080B582B040F20800C2F20000C1680022BC
:103470004FF4207301900846114600921A4600F05E
:103480000DF8019880684FF42052009900F006F87A
:1034900001200199087402B080BD000080B587B09A
:1034A00013468C46864606908DF8171004920698AF
:1034B00003900293CDF804C0CDF800E0FFE7049834
:1034C000411E0491002807D0FFE79DF817000399DB
:1034D0004A1C03920870F2E707B080BD83B0002059
:1034E00002900190FFE701988009042814D8FFE7B3
:1034F00040F20800C2F20000C068019930F81100E3
:10350000002804D0FFE7029801300290FFE7FFE7B0
:10351000019801300190E6E70298642148434CF697
:10352000CD41CCF6CC41A0FB0101C1F307210090B5
:10353000084603B07047000080B5FEF707FA80BD6B
:1035400080B58BB013468C4686460A900991089246
:103550000A9800F0070007900798C0F107000528B7
:103560000493CDF80CC0CDF808E003D3FFE70420A6
:10357000019004E00798C0F107000190FFE701986F
:10358000069007980430062803D8FFE70020009033
:1035900003E0079803380090FFE70098059009982A
:1035A0000699012202FA01F1013908400599884083
:1035B000089B02FA01F10139194008430BB080BDA4
:1035C00080B58BB013468C4686460A9009910892C6
:1035D0000A9800F0070007900798C0F10700052837
:1035E0000493CDF80CC0CDF808E003D3FFE7042026
:1035F000019004E00798C0F107000190FFE70198EF
:10360000069007980430062803D8FFE700200090B2
:1036100003E0079803380090FFE7009805900998A9
:103620000699012202FA01F1013908400599884002
:10363000089B02FA01F10139194008430BB080BD23
:1036400080B58BB013468C4686460A900991089245
:103650000A9800F0070007900798C0F107000528B6
:103660000493CDF80CC0CDF808E003D3FFE70420A5
:10367000019004E00798C0F107000190FFE701986E
:10368000069007980430062803D8FFE70020009032
:1036900003E0079803380090FFE700980590099829
:1036A0000699012202FA01F1013908400599884082
:1036B000089B02FA01F10139194008430BB080BDA3
:1036C00080B588B0032003F0C5F803F039F84FF057
:1036D000000E71467246CDF81CE0FFF731FF6FF027
:1036E0000B0106900846069903F042F803F028F80B
:1036F0000799079AFFF724FF6FF00A010590084623
:10370000059903F035F803F01BF80799079AFFF7BE
:1037100017FF6FF0090104900846049903F028F898
:1037200003F00EF80799079AFFF70AFF6FF00401FC
:1037300003900846039903F01BF803F001F807997A
:10374000079AFFF7FDFE6FF0030102900846029909
:1037500003F00EF802F0F4FF0799079AFFF7F0FE66
:103760006FF0010101900846019903F001F808B0DB
:1037700080BD000080B500F013F880BD80B5FFF774
:10378000F9FF80BD80B54FF48030FEF7DFFDFFF715
:103790001BF8002803D0FFE7FFF7F0FFFFE780BD2D
:1037A000704700007047000080B584B00146039068
:1037B000039802910190FFF75BF8C0B2000947F24D
:1037C0007021C0F60001085C019921FA00F004B0F4
:1037D00080BD000080B584B001460390039802913B
:1037E0000190FFF74DF8800A47F28021C0F60001F2
:1037F000085C019921FA00F004B080BD80B584B066
:1038000001460390039802910190FFF741F8400BA5
:1038100047F28021C0F60001085C019921FA00F00E
:1038200004B080BD80B582B000200190FFF738F869
:1038300086460028CDF800E008D0FFE7009804286D
:103840000AD0FFE7009808280CD010E042F20040B0
:10385000C0F2F400019010E041F20020C0F27A00C2
:1038600001900AE0082000F00FF8019005E042F214
:103870000040C0F2F4000190FFE7019802B080BD63
:1038800080B5FEF767F880BD80B58AB00146099023
:1038900000200890079006900591FFF7CFF8079059
:1038A00007980028049005D0FFE70498B0F5800F32
:1038B00006D00BE042F20040C0F2F40008900BE0AA
:1038C00041F20020C0F27A00089005E042F2004088
:1038D000C0F2F4000890FFE7099808281DD1FFE71F
:1038E00008980390FFF7A2F8DDF80CE0BEFBF0F0BB
:1038F0000290FFF7ABF8DDF808E00EFB00F0019056
:10390000FFF7ACF8000C4FF0020E0EEB4000DDF8B4
:1039100004E0BEFBF0F00690FFE706980AB080BD19
:1039200080B582B0014601900198009100F082F9C3
:1039300002B080BD80B582B001460190019800912F
:1039400000F0F2F902B080BD2DE9F04F9BB0DDF838
:10395000A8C0DDF8A4E0289C279D269E259FDDF8C1
:103960009080994692468B460F90CDF868C0CDF86E
:1039700064E01894179516961597CDF85080139318
:10398000129211910F991091109A1199129BDDF8D2
:103990004CC0DDF850E0159C169D179E189FDDF871
:1039A00064800E901A980D9068460C900D980B91BB
:1039B0000C998861C1F814800F61CE608D604C60F5
:1039C000C1F800E010460B991A466346CDF82890DE
:1039D000CDF824A0CDF820B000F022FA1BB0BDE84D
:1039E000F08F000080B586B013468C468646059061
:1039F0008DF81310039205989DF81310039A029303
:103A0000CDF804C0CDF800E000F054FA06B080BD57
:103A100080B582B0014601900198009100F046FB0C
:103A200002B080BD80B586B013468C4686460590B0
:103A30008DF81310039205989DF81310039A0293C2
:103A4000CDF804C0CDF800E000F028FC06B080BD41
:103A500080B582B00146019001980091FFF760FFA8
:103A600002B080BD80B582B00146019001980091FE
:103A7000FFF760FF02B080BD2DE9F04F9BB0DDF88D
:103A8000A8C0DDF8A4E0289C279D269E259FDDF890
:103A90009080994692468B460F90CDF868C0CDF83D
:103AA00064E01894179516961597CDF850801393E7
:103AB000129211910F991091109A1199129BDDF8A1
:103AC0004CC0DDF850E0159C169D179E189FDDF840
:103AD00064800E901A980D9068460C900D980B918A
:103AE0000C998861C1F814800F61CE608D604C60C4
:103AF000C1F800E010460B991A466346CDF82890AD
:103B0000CDF824A0CDF820B0FFF71EFF1BB0BDE814
:103B1000F08F000080B586B013468C46864605902F
:103B20008DF81310039205989DF81310039A0293D1
:103B3000CDF804C0CDF800E0FFF754FF06B080BD1B
:103B400080B582B00146019001980091FFF760FFB7
:103B500002B080BD80B586B013468C46864605907F
:103B60008DF81310039205989DF81310039A029391
:103B7000CDF804C0CDF800E0FFF754FF06B080BDDB
:103B800080B584B00A46034603908DF80B10039865
:103B9000006A43F20001C4F20101884201920093DD
:103BA00010D1FFE79DF80B00002805D0FFE74FF488
:103BB0008050FEF707FB04E04FF48050FEF7CEFA8A
:103BC000FFE733E00398006A43F60001C4F2000106
:103BD000884210D1FFE79DF80B00002805D0FFE7D1
:103BE0004FF48040FEF756FA04E04FF48040FEF7B1
:103BF00031FAFFE719E00398006A43F60041C4F286
:103C00000001884210D1FFE79DF80B00002805D085
:103C1000FFE74FF40040FEF73DFA04E04FF40040A8
:103C2000FEF718FAFFE7FFE7FFE7FFE7002004B021
:103C300080BD000080B584B0014603900398006AFF
:103C4000002802910DD0FFE70398006AFEF7D2FF2B
:103C5000DDF80CE0002101907046FFF791FF009025
:103C6000FFE7039800F002F804B080BD80B592B081
:103C700001461190002010900F900E900D900C9026
:103C80000B90119AD2690B920C900D900E9001221C
:103C90000F921090119A92690BAB0A9010460991FD
:103CA00019460893FEF794FB119949690B911199F4
:103CB0000969079008460899FEF78AFB1199496837
:103CC0000B9111990968069008460899FEF780FB48
:103CD0001199C9680B91119989680590084608994E
:103CE000FEF776FB11998A69C96904901046FEF7C0
:103CF00087FC119801694069039008460399FEF713
:103D00007FFC119801684068029008460299FEF70E
:103D100077FC11988168C068019008460199FEF708
:103D20006FFC0A9812B080BD80B592B00146119028
:103D30001198806901220A9111460992FDF768FFE6
:103D4000119800690999FDF763FF119800680999B6
:103D5000FDF75EFF119880680999FDF759FF002073
:103D600010900F900E900D900C900B901199C969C6
:103D70000B910C9003210D910E9009990F91119ABE
:103D8000126B1092119A92690DF12C0E0890104648
:103D90007146CDF81CE0FEF71BFB02210C91119936
:103DA00049690B9111990969069008460799FEF730
:103DB0000FFB119949680B91119909680590084604
:103DC0000799FEF705FB1199C9680B91119989684C
:103DD000049008460799FEF7FBFA11998A69C969A8
:103DE00003901046FEF70CFC11980169406902909F
:103DF00008460299FEF704FC11980168406801909A
:103E000008460199FEF7FCFB11988168C068009094
:103E100008460099FEF7F4FB089812B080BD000038
:103E20002DE9F04F93B0DDF888C0DDF884E0209CE8
:103E30001F9D1E9E1D9FDDF87080994692468B4601
:103E40000790CDF848C0CDF844E010940F950E9639
:103E50000D97CDF830800B930A920991079908913C
:103E6000089A126A06901046CDF81490CDF810A06A
:103E7000CDF80CB0FEF7BEFE08990122029008466C
:103E80001146FFF77DFE0899096A09AA01900846C4
:103E90001146FEF703FF08990A6A496B0090104625
:103EA000FEF784FF0898006AFEF7ECFE002013B0CE
:103EB000BDE8F08F80B58AB013468C4686460890E0
:103EC0008DF81F100692002005900490039008982A
:103ED000C06B00280293CDF804C0CDF800E005D0F7
:103EE000FFE70898C06B80470490FFE7FFE708985A
:103EF000006AFEF72FFF002834D1FFE70898C06B57
:103F000000281ED0FFE70898C06B804705900598F1
:103F1000DDF810E0704506D2FFE70498C04305992C
:103F20000844039004E005980499401A0390FFE7C1
:103F30000398652804D3FFE702208DF8270071E07D
:103F40000FE0059801300590059848F2A161C0F294
:103F50000101884204D3FFE703208DF8270061E0C8
:103F6000FFE7C4E70898006A9DF81F10FEF730FFCE
:103F70000898C06B002805D0FFE70898C06B804701
:103F8000049002E000200590FFE7FFE70898006A30
:103F9000FEF7D6FE002834D1FFE70898C06B002852
:103FA0001ED0FFE70898C06B804705900598DDF8A4
:103FB00010E0704506D2FFE70498C0430599084415
:103FC000039004E005980499401A0390FFE70398D2
:103FD000652804D3FFE702208DF8270022E00FE0D8
:103FE000059801300590059848F2A161C0F20101E1
:103FF000884204D3FFE705208DF8270012E0FFE791
:10400000C4E70698002809D0FFE70898006AFEF781
:10401000B5FEDDF818E08EF80000FFE700208DF80F
:104020002700FFE79DF827000AB080BD80B58AB061
:1040300013468C46864609908DF8231007929DF80A
:104040002300000600280693CDF814C0CDF810E038
:1040500009D4FFE70998016840680390084603996E
:10406000FEF764FA08E00998016840680290084683
:104070000299FEF7C5FAFFE70798002812D0FFE77C
:1040800009988168C068019008460199FEF72EFAE8
:10409000002806D0FFE70798017841F00101017080
:1040A000FFE7FFE700200AB080BD000080B592B0B6
:1040B000014611901198806901220A9111460992D6
:1040C000FDF7A6FD119800690999FDF7A1FD11986A
:1040D00000680999FDF79CFD119880680999FDF722
:1040E00097FD002010900F900E900D900C900B906B
:1040F0001199C9690B9109990C9103220D920E90A7
:104100000F911090119A92690DF12C0E08901046A3
:104110007146CDF81CE0FEF75BF9119949690B91E6
:1041200011990969069008460799FEF751F9119906
:1041300049680B9111990968059008460799FEF79F
:1041400047F91199C9680B9108990C91119A9268D5
:10415000049010460799FEF73BF911998A69C969DD
:1041600003901046FEF74CFA1198016940690290DD
:1041700008460299FEF744FA1198016840680190D8
:1041800008460199FEF73CFA11988168C0680090D2
:1041900008460099FEF734FA089812B080BD000076
:1041A00080B58AB013468C46864609908DF8231058
:1041B0000792099890F8250000280693CDF814C0BE
:1041C000CDF810E006D1FFE7099890F82600002806
:1041D0000CD0FFE7099890F82500012830D1FFE7BF
:1041E000099890F8260001282AD1FFE7099801696B
:1041F0004069039008460399FEF798F90998008DE5
:10420000012805DBFFE70998816B008D8847FFE7F0
:1042100009989DF82310079AFFF708FF09990A6982
:10422000496902901046FEF7EBF90998008D0128C4
:1042300005DBFFE70998816B008D8847FFE729E0E0
:10424000099801694069019008460199FEF7D8F97B
:104250000998008D012805DBFFE70998816B008D27
:104260008847FFE709989DF82310079AFFF7DEFEBD
:1042700009990A69496900901046FEF757F90998AB
:10428000008D012805DBFFE70998816B008D8847C9
:10429000FFE7FFE700200AB080BD000080B58AB0CC
:1042A00013468C46864609908DF82310079200200D
:1042B0008DF81B00079800280593CDF810C0CDF8A5
:1042C0000CE004D0FFE7079800210170FFE7002011
:1042D0008DF81B00FFE79DF81B0007281CDCFFE79B
:1042E0000798002805D0FFE707980178490001707A
:1042F000FFE709989DF82310079AFFF751FF9DF8F3
:10430000231049008DF823100290FFE79DF81B0051
:1043100001308DF81B00DEE7099890F82500002891
:1043200009D1FFE7099801694069019008460199A0
:10433000FEF7FCF808E0099801694069009008461A
:104340000099FEF75DF9FFE700200AB080BD00008C
:104350007047000080B584B00A460346039002917E
:10436000039802990192009300F010F804B080BD08
:1043700080B584B00A4603460390029103980299DF
:1043800001920093FFF7E6FF04B080BD87B00A46B4
:104390000346069005910020049005980699C96887
:1043A00088420292019307D2FFE70698C068C04393
:1043B00005990844049005E005980699C968401AD3
:1043C0000490FFE70698C079013803900398069996
:1043D0008979642200FB021003900498B0F57A7F7B
:1043E000C0F0C480FFE705980699C8600698017878
:1043F00001310170069800783D28C0F2B680FFE7D1
:1044000006984178013141700698002101700698A4
:1044100040783D28C0F2A880FFE7069881780131F6
:104420008170069800214170069880781928C0F2A2
:104430009A80FFE70698C1780131C170069801792A
:104440000131017106980079082804DBFFE706981E
:1044500001210171FFE706980021817006984079DB
:10446000022851D1FFE7039848F21F51C5F2EB1122
:1044700050FB01F14A1102EBD171642201FB1200E1
:1044800000280CD0FFE70398C11700EB917121F0D1
:104490000301401A01210028009113D0FFE703987F
:1044A00048F21F51C5F2EB1150FB01F1CA1102EBAA
:1044B000D1714FF4C87201FB1200B0FA80F04009CC
:1044C0000090FFE70098C00700280ED0FFE706988D
:1044D000C0781E2808DBFFE706980021C170069807
:1044E000417901314171FFE70DE00698C0781D2840
:1044F00008DBFFE706980021C17006984179013179
:104500004171FFE7FFE72DE00698C178407947F257
:104510009062C0F60002105C814222DDFFE706983F
:104520000021C170069841790131417106984079A6
:104530000D2815DBFFE70698012141710698817966
:104540000131817106988079652808DBFFE70698BC
:10455000C1790131C171069800218171FFE7FFE740
:10456000FFE7FFE7FFE7FFE7FFE7FFE707B0704779
:1045700080B500F045F880BD80B582B0014601905D
:104580000198009100F088F802B080BD80B500F07D
:10459000D5F880BD80B500F0E1F880BD80B500F0B1
:1045A0002BF980BD80B582B0014601900198009141
:1045B00000F08CF902B080BD80B5FFF7D9FF80BD57
:1045C00080B582B00146019001980091FFF7D4FFB9
:1045D00002B080BD80B5FFF7D9FF80BD80B5FFF781
:1045E000D9FF80BD80B5FFF7D9FF80BD80B582B00F
:1045F0000146019001980091FFF7D4FF02B080BD01
:1046000083B04EF21000CEF2000000684007002890
:104610001DD5FFE74EF21400CEF20000006840F214
:104620000001C2F20001096844F6D352C1F26202ED
:10463000A1FB02124FF0FF3303EB92129042019163
:1046400004D0FFE701208DF80B0021E01CE04EF2C2
:104650001400CEF20000006840F20001C2F2000136
:10466000096844F6D352C1F26202A1FB02124FF074
:10467000FF3303EB52229042009104D0FFE7012068
:104680008DF80B0004E0FFE700208DF80B00FFE73A
:104690009DF80B0003B0704780B588B001460790C5
:1046A0004EF21800CEF2000000680690069840F224
:1046B0000002C2F2000212684DF68363C4F21B339B
:1046C000A2FB03239B0CB0FBF3F005900598022896
:1046D0000491039211D3FFE7059800F0F7F8DDF895
:1046E0001CE0AEF1010ECDF81CE0DDF814E0CEF5D3
:1046F000757ECDF818E00290FFE7079840F224019C
:10470000C2F2000109684860FFE740F22400C2F2EB
:10471000000000684068002804D0FFE7FDF736FC81
:104720000190F2E70698022805D3FFE7069800F00B
:10473000CDF80090FFE7002008B080BD40F22400D3
:10474000C2F20000006800687047000080B582B0C7
:10475000FFF744FF019002B080BD000080B540F239
:104760002400C2F2000001680A6801320A60006891
:104770000068002809D1FFE740F22400C2F20000DF
:104780000068816801318160FFE740F22400C2F2D5
:10479000000000680069002808D0FFE740F224000C
:1047A000C2F20000006800698047FFE740F2240081
:1047B000C2F200000068C068002808D0FFE740F29D
:1047C0002400C2F200000068C0688047FFE740F2A2
:1047D0002400C2F2000000684068002809D0FFE70A
:1047E00040F22400C2F200000068416801394160D3
:1047F000FFE7002080BD000080B586B040F22400B5
:10480000C2F2000001680590084600F043F80490E9
:1048100000F052F840F20001C2F2000109684FF4C2
:104820007A7E039008467146FDF7A4FF032002F04C
:1048300031F801F08DFF0F214FF0000E7246CDF8D8
:1048400008E0FEF7BDFE4FF0FF31019008460199E8
:1048500001F0B4FF00F014F840F22C01C2F20001A4
:1048600001220A7005990A6841F66D6EC0F6000EC5
:10487000C2F80CE0029A0090104606B080BD00001D
:104880004EF21000CEF20000016841F0020101601A
:104890000020704782B0014601900198002202601A
:1048A00001984260019882600198C260019802619B
:1048B0001046009102B070474EF21000CEF2000098
:1048C000016821F0020101600020704788B00146B4
:1048D0000790079840F20002C2F2000212684DF6FB
:1048E0008363C4F21B33A2FB03239B0C5843069043
:1048F0004EF21800CEF200000068059000200490EF
:1049000003904EF21400CEF2000000680290019174
:104910000092FFE74EF21800CEF20000006804900B
:104920000598049988421ED0FFE7049805998842AB
:1049300007D2FFE705980499401A039908440390A9
:1049400008E002980499401A05990844039908441C
:104950000390FFE70498059003980699884201D3D5
:10496000FFE701E0FFE7D5E7002008B0704700004F
:1049700080B58AB000208DF82700089000F048F834
:10498000FEF79EFEFEF76CFDFDF752F9FFF72AFEDB
:104990000790FCF7BFFE40F21C00C2F20000006866
:1049A000EE460899CEF8001041F6A131C0F600019C
:1049B00041F68D32C0F6000244F2D55EC0F6000E1C
:1049C0007346CDF818E0FBF7CDFE40F22801C2F2A5
:1049D000000109686A46069BD360DDF820E0C2F852
:1049E00008E040F2407CC2F2000CC2F804C040F281
:1049F0000C7CC2F800C040F23402C2F20002059002
:104A000008466146734600F0CFFB04900AB080BDB3
:104A100080B584B00520FDF7CBFCFDF7C1FC05286F
:104A200008D0FFE747F29D60C0F60000112101F0B9
:104A300061FEFFE74FF48040FDF7CEFEFDF75EFF1D
:104A4000FFE7FDF76FFF012801D0FFE7F9E7FDF76A
:104A500081FFFFE7FDF788FF012801D0FFE7F9E7B5
:104A6000FDF7A8FEFDF7FAFEFEF708F84FF44070D8
:104A7000FEF73EF84FF40020FEF74AF8FDF7E4FE9B
:104A80004FF480004FF0040EA82100230390029100
:104A90007146029ACDF804E0FDF794FF4FF0E06311
:104AA00003980199029AFDF767FFFDF7B5FFFFE74D
:104AB000FDF7DCFF012801D0FFE7F9E70020FDF753
:104AC000E7FF4FF4A050FDF7F3FF4FF40040FDF770
:104AD000FFFF0220FEF72CF8FFE7FDF7E9FE0828AC
:104AE00001D0FFE7F9E70420FEF784F947F600203C
:104AF000C0F60320FEF79AF9FDF748FCFDF732FCFB
:104B0000FDF73AFC04B080BD4EF68850CEF20000AE
:104B1000016841F47001016043F60000C4F2020034
:104B2000016841F00101016043F60801C4F202018D
:104B300000220A6001684FF6FF73CFF6F663194052
:104B4000016043F60401C4F2020143F21003C2F211
:104B500000430B60016821F48021016043F60C00E2
:104B6000C4F2020002604EF60850CEF200004FF090
:104B7000006101607047000080B5FCF73FFF80BD19
:104B800080B586B040F22800C2F20000006880695B
:104B9000FEF74AFB002825D0FFE740F22800C2F2CA
:104BA000000000688069FEF77BFB00281AD0FFE751
:104BB00040F22800C2F20000006841F20001C4F295
:104BC0000101059008460491FEF79CFB05990390AE
:104BD0000846039900F0C4FA049902900846FEF7CB
:104BE000A1F9FFE740F22800C2F2000000688069E6
:104BF000FEF738FB002814D0FFE740F22800C2F28D
:104C0000000000688069FEF769FB002809D0FFE713
:104C100040F22800C2F20000006800F0BBFA0190E8
:104C2000FFE740F22800C2F2000000688069FEF74A
:104C300005FB00281BD0FFE740F22800C2F200006D
:104C400000688069FEF736FB002810D0FFE740F2CD
:104C50002800C2F20000006800F092FA41F2000E53
:104C6000C4F2010E00907046FEF766F9FFE706B049
:104C700080BD000080B59EB001461D900020C4F2AA
:104C8000020001220F900E9111460D92FCF7C0FF19
:104C900000201C901B901A901990189017900221D8
:104CA0001891032219921A900D9A1B924FF4C06E1C
:104CB000CDF85CE04FF0070ECDF870E00DF15C0E22
:104CC0000F9B0C9018460B917146FDF781FB41F24A
:104CD0000001C4F201010A9008460991FEF750F95B
:104CE0000999089008460D9900F0BEFC0C991691A0
:104CF0001591149113911291119110914FF4E13289
:104D000010921191129113910C22149215911691F7
:104D100010A9099A07901046FEF7F4F90999069030
:104D20000846FEF71DF901F01BFD0B990C9AFEF7E2
:104D300087FC252105900846059A0491114601F04B
:104D400063FD049801F0E0FC0998FEF7B7F90998B3
:104D5000FEF7A8F91D980F99C1601D984FF40072D5
:104D600082601D98099A82611D980B9B03701D98A3
:104D7000C06D002806D0FFE71D98642141651D988D
:104D8000416305E01D98002141651D984163FFE7DF
:104D90001D98002141771D98552242701D985A2276
:104DA00082701D98039100F099FA1D9902900846AF
:104DB000039900F059FD1D9947F2F762C0F6000211
:104DC00001900846114601F089F803981EB080BD95
:104DD00082B0014601900020009102B070470000AF
:104DE00082B0014601900020009102B0704700009F
:104DF00080B582B0014601900198009100F092FACE
:104E000002B080BD80B582B001460190019800914A
:104E100000F0DAFC02B080BD2DE9F0418AB0DDF887
:104E200044C0DDF840E01C4615460E460746099092
:104E30008DF823108DF822208DF821308DF820E098
:104E40008DF81FC009989DF823109DF822209DF829
:104E500021309DF820C09DF81FE0E846C8F804E026
:104E6000C8F800C0069405950496039700F0CCFCA2
:104E70000AB0BDE8F081000080B582B00146019023
:104E80000198009100F016FD02B080BD80B584B09D
:104E90000A46034603908DF80B1003989DF80B10FB
:104EA0000192009300F0BEFE04B080BD80B582B0D8
:104EB000014601900198009100F0D8FE02B080BD3B
:104EC00080B582B0014601900198009100F00AFF80
:104ED00002B080BD2DE9F04F91B0DDF874C0DDF86F
:104EE00070E01B9C1A9D1E4617468846814610900E
:104EF000ADF83E100E928DF83730ADF834508DF885
:104F000033E000208DF832001098BDF83E100E9A64
:104F10009DF83730BDF834E01B9D9DF833A0DDF8D7
:104F200074B00B906846C0F80CB0C0F808A045609B
:104F3000C0F800E00B980A960997CDF82080CDF8CC
:104F40001C90CDF818C0059400F02CFF8DF83200AD
:104F50009DF8320000280DD1FFE7FCF7D7FB0028B1
:104F600007D0FFE71098002180F83D101098417796
:104F7000FFE7FFE79DF8320011B0BDE8F08F0000B9
:104F800080B582B0014601900198009101F040F88F
:104F900002B080BD80B584B00A46034603908DF808
:104FA0000B1003989DF80B100192009301F056F836
:104FB00004B080BD80B582B0014601900198009197
:104FC00001F094F802B080BD80B584B00A46034673
:104FD0000390ADF80A100398BDF80A1001920093EF
:104FE00001F018F904B080BD80B584B00A460346CC
:104FF00003908DF80B1003989DF80B10019200930D
:1050000001F002FA04B080BD80B582B00146019083
:1050100001980091FFF7ECFE02B080BD80B582B030
:105020000146019001980091FFF7ECFE02B080BDAF
:1050300080B58EB00A4603460C900B910020ADF867
:105040002A000C9800280992089377D0FFE70C9863
:1050500000F07CF801286BD1FFE70C98FFF7D4FF34
:10506000002855D1FFE70C98FFF7D8FF00284FD153
:10507000FFE70C98817800F0FBF80B990029079066
:105080000BD0FFE70B980C998A6B896D0690084648
:105090001146069A9047059035E00C98B0F84210FA
:1050A00000F000F90321ADF82A100490FFE7BDF8E5
:1050B0002A000C99B1F8461088420FDAFFE70C98E5
:1050C000816DBDF82A20895C00F0D2F80390FFE7DB
:1050D000BDF82A000130ADF82A00E8E70C9890F8F6
:1050E000200001280ED1FFE70C980D2100F0C0F838
:1050F0000C994FF00A0E02900846714600F0B8F87D
:105100000190FFE7FFE70C9800F0C2F8009009E07B
:105110000C9801784A1E47F20D71C0F6000100F0AC
:10512000DDFEFFE70C9800F099F88DF8370009E0F4
:105130000C9800F0C7F88DF8370003E002208DF8D6
:105140003700FFE79DF837000EB080BD80B582B014
:105150000146019001980091FFF78EFE02B080BDDC
:1051600080B584B00A46034603908DF80B1003986F
:105170009DF80B1001920093FFF788FE04B080BDEC
:1051800080B582B00146019001980091FFF78EFE34
:1051900002B080BD80B582B00146019001980091B7
:1051A000FFF78EFE02B080BD2DE9F04F95B0DDF81F
:1051B00084C0DDF880E01F9C1E9D1E461746884671
:1051C00081461490ADF84E1012928DF84730ADF82C
:1051D00044508DF843E000208DF842001499BDF84A
:1051E0004E20129B9DF847E0BDF84450DDF87CA0AE
:1051F0009DF843B00F9021980E9068460D900E9840
:105200000C910D99C860C1F808B0C1F804A00D60F8
:105210000C9811461A4673460B960A97CDF82480CF
:10522000CDF82090CDF81CC00694FFF753FE8DF802
:1052300042001498694605224A6004220A6003214C
:105240000F9A05911146059A059BFFF7E5FD8DF82C
:1052500042009DF8420015B0BDE8F08F80B582B0E5
:105260000146019001980091FFF78AFE02B080BDCF
:1052700080B584B00A46034603908DF80B1003985E
:105280009DF80B1001920093FFF784FE04B080BDDF
:1052900080B582B00146019001980091FFF78AFE27
:1052A00002B080BD80B584B00A4603460390ADF8D5
:1052B0000A100398BDF80A1001920093FFF784FECC
:1052C00004B080BD80B582B00146019001980122F2
:1052D00000911146FFF788FE02B080BD80B584B012
:1052E0000A46034603908DF80B1003984069002886
:1052F0000192009312D0FFE79DF80B00012806D120
:10530000FFE7039801694069FDF71EF905E003987E
:1053100001694069FDF780F9FFE7FFE7002004B06D
:1053200080BD000080B586B0014604900020039047
:1053300002900498B0F84200ADF80600049890F886
:105340003D000028009100F06C81FFE7FCF7DEF9DA
:10535000002840F06681FFE7049890F83D0001289E
:105360003CD1FFE7BDF806000138ADF8060004980F
:10537000B0F84800F92812DCFFE79DF80600049910
:10538000896D48700498806DBDF8061008448078D7
:105390000290BDF806000230ADF8060016E09DF858
:1053A00007000499896D48709DF806000499896D7D
:1053B00088700498806DBDF806100844C07802908B
:1053C000BDF806000330ADF80600FFE70498806DD5
:1053D000BDF80610FCF78CF9039018E1049890F8DA
:1053E0003D0002283DD1FFE7BDF806000138ADF8C9
:1053F00006000498B0F84800F92812DCFFE79DF891
:1054000006000499896D48700498806DBDF80610F7
:10541000084480780290BDF806000230ADF806001E
:1054200016E09DF807000499896D48709DF8060004
:105430000499896D88700498806DBDF80610084441
:10544000C0780290BDF806000330ADF80600FFE713
:105450000498816DBDF806200720FCF733F903900E
:10546000D4E0049890F83D00032850D1FFE7BDF840
:1054700006000238ADF806000498B0F84800F92894
:105480001CDCFFE79DF806000499896D48700498BC
:10549000806DBDF806100844407802900298049987
:1054A000896DBDF806201144897841EA00200290F8
:1054B000BDF806000230ADF8060020E09DF80700B8
:1054C0000499896D48709DF806000499896D88706B
:1054D0000498806DBDF80610084480780290029808
:1054E0000499896DBDF806201144C97841EA00206D
:1054F0000290BDF806000330ADF80600FFE70498FF
:10550000806DBDF80610FCF7C1F803907DE00498AB
:1055100090F83D00042877D1FFE7BDF80600043875
:10552000ADF806000498B0F84800F92830DCFFE731
:105530009DF806000499896D48700498806DBDF847
:105540000610084410F8010C029002980499896D25
:10555000BDF80620895C41EA002002900298049977
:10556000896DBDF806201144497841EA0020029077
:1055700002980499896DBDF806201144897841EAA2
:1055800000200290BDF806000230ADF8060033E0BE
:105590009DF807000499896D48709DF806000499EC
:1055A000896D88700498806DBDF80610405C02908B
:1055B00002980499896DBDF806201144497841EAA2
:1055C0000020029002980499896DBDF806201144CC
:1055D000897841EA0020029002980499896DBDF80B
:1055E00006201144C97841EA00200290BDF8060067
:1055F0000330ADF80600FFE70498806DBDF8061093
:10560000FCF752F80390FFE7FFE7FFE7FFE7039897
:105610000299884204D0FFE701208DF8170004E0CA
:10562000FFE700208DF81700FFE79DF8170006B090
:1056300080BD000084B00A46034603908DF80B102D
:105640009DF80B0000280192009305D0FFE7039816
:10565000002180F84A1004E00398002180F82A1005
:10566000FFE7002004B0704780B586B00A460346C5
:1056700004908DF80F10049841F20001C4F201016A
:1056800088420292019311D1FFE79DF80F00002894
:1056900004D0FFE71020FCF7A9FD03E01020FCF781
:1056A0006DFDFFE700208DF8170088E0049844F2B4
:1056B0000041C4F20001884213D1FFE79DF80F00BA
:1056C000002805D0FFE74FF40030FCF7F7FC04E0BA
:1056D0004FF40030FCF7CEFCFFE700208DF81700F8
:1056E0006DE0049844F60001C4F20001884213D131
:1056F000FFE79DF80F00002805D0FFE74FF480205A
:10570000FCF7DCFC04E04FF48020FCF7B3FCFFE77F
:1057100000208DF8170052E0049841F20041C4F2D5
:105720000101884211D1FFE79DF80F00002804D045
:10573000FFE72020FCF75AFD03E02020FCF71EFDC8
:10574000FFE700208DF8170039E0049844F6004187
:10575000C4F20001884213D1FFE79DF80F00002832
:1057600005D0FFE74FF40020FCF7A8FC04E04FF45D
:105770000020FCF77FFCFFE700208DF817001EE0FB
:10578000049845F20001C4F20001884213D1FFE7FA
:105790009DF80F00002805D0FFE74FF48010FCF7BC
:1057A0008DFC04E04FF48010FCF764FCFFE7002060
:1057B0008DF8170003E001208DF81700FFE79DF832
:1057C000170006B080BD000083B00146019001982B
:1057D00002794079801A002800910DD0FFE70198E6
:1057E000816DC2780079085C904204D0FFE7012007
:1057F0008DF80B0004E0FFE700208DF80B00FFE7B9
:105800009DF80B0003B07047F0B587B0DDF834C0E9
:10581000DDF830E01C4615460E46074606908DF82A
:1058200017108DF816208DF815308DF814E08DF8CE
:1058300013C09DF817000699C8709DF816000699C8
:1058400008719DF81500069948719DF81400069995
:1058500088719DF813000699C87100200394029581
:105860000196009707B0F0BD80B584B00A460346A4
:1058700003908DF80B100398C068002801920093E4
:1058800014D0FFE79DF80B00012807D1FFE703982C
:105890008168C0680222FCF7EBFE06E0039881688D
:1058A000C0680022FCF7E4FEFFE7FFE7002004B039
:1058B00080BD000082B001460190019890F83E0042
:1058C000009102B07047000080B58CB00A460346D4
:1058D0000B908DF82B109DF82B0040F64C61C2F216
:1058E000000108700B9890F83F00014604280992C7
:1058F0000893079100F2CE800799DFE801F00330AA
:10590000528CCA000B98B0F84400002826D1FFE75B
:105910000B98407840F64C61C2F200010978884249
:105920001BD1FFE740F64C60C2F2000000780B99F3
:10593000896D08700B98012180F83F100B98A0F832
:1059400046100B98069100F0E1FD0B990590084672
:105950000699FFF76FFE0490FFE7FFE79BE040F634
:105960004C60C2F2000001780B9A926D5170007881
:105970000B99A1F842000B98B0F842100902A0F868
:1059800042100B98022180F83F100B98B0F8461097
:105990000131A0F846100B98012100F0B7FD0390EB
:1059A00079E040F64C60C2F2000001780B9A926DEB
:1059B000917000780B99B1F842201044A1F8420090
:1059C0000B98B0F846100131A0F846100B98B0F8CB
:1059D0004200012814DBFFE70B98B0F842000B9956
:1059E000B1F8481088420BDAFFE70B98B0F8420094
:1059F0000B99A1F846000B98032180F83F1004E0B2
:105A00000B98002180F83F10FFE70B98012100F070
:105A10007DFD02903FE040F64C60C2F2000000784D
:105A20000B998A6DB1F844101144C8700B98B0F806
:105A300044100131A0F844100B98B0F84610013121
:105A4000A0F846100B98B0F844000B99B1F8481034
:105A5000884205DBFFE70B980021A0F84410FFE720
:105A60000B98012100F052FD0B99B1F84410DDF8BC
:105A70002CE0BEF842E07145019009DBFFE70B988E
:105A8000042180F83F100B98012180F83E10FFE7B9
:105A900001E000E0FFE700200CB080BD80B58AB0D7
:105AA0000A46034609908DF823109DF8230040F61E
:105AB0004D61C2F200010870099890F83F0001465C
:105AC000032807920693059100F2A7800599DFE865
:105AD00001F0022F65A30998B0F84400002826D1F0
