:020000040800F2
:10000000484E00209D01000839380008D122000820
:100010005D370008211C0008A95E000800000000F0
:100020000000000000000000000000005146000831
:10003000491D000800000000A53A0008594A0008C0
:10004000AD5E0008853A0008B7010008B701000856
:10005000B7010008813B0008B7010008B70100089C
:10006000B7010008B7010008B7010008B701000890
:10007000B7010008B7010008B7010008B701000880
:10008000B7010008B7010008B7010008B701000870
:10009000B7010008B7010008B7010008B701000860
:1000A000B7010008B7010008B7010008B701000850
:1000B000914E0008B7010008B7010008B701000819
:1000C000B7010008B7010008B7010008B701000830
:1000D000B7010008994E0008B7010008B7010008F1
:1000E000B7010008B7010008B7010008B701000810
:1000F000B7010008B7010008B7010008B701000800
:10010000B7010008B7010008B7010008B7010008EF
:10011000B7010008B7010008B7010008B7010008DF
:10012000F11C00081D1D0008B7010008B7010008F8
:10013000B7010008B7010008B7010008B7010008BF
:10014000B7010008B7010008B7010008B7010008AF
:10015000B7010008B7010008B7010008B70100089F
:10016000B7010008B7010008B7010008B70100088F
:10017000B7010008B7010008B7010008000000003F
:10018000E1210008B7010008DFF80CD000F0B8FA50
:1001900000480047C9600008484E002006488047D4
:1001A00006480047FEE7FEE7FEE7FEE7FEE7FEE75C
:1001B000FEE7FEE7FEE7FEE7214E000889010008A2
:1001C0002DE9F05F0546002092469B46884606468C
:1001D000814640241BE0284641464746224600F01F
:1001E0006DF953465A46C01A914110D3114618462C
:1001F000224600F054F92D1A67EB01084F462246BB
:100200000120002100F04BF917EB00094E41201EA0
:10021000A4F10104DFDC484631462A464346BDE8E6
:10022000F09FD2B201E000F8012B491EFBD27047CB
:100230000022F6E710B513460A4604461946FFF7B2
:10024000F0FF204610BD2DE9FE4F804681EA0300F5
:10025000C00F0C46009021F0004123F00045B8EBA0
:100260000200A94105D24046214690461C460B4655
:10027000024623F00040104347D0270DC7F30A0081
:10028000C3F30A510290401A019040286BDAC3F37D
:10029000130040F4801B0098924620B10023D2EB5B
:1002A000030A63EB0B0B01985946C0F1400250461C
:1002B00000F0F5F806460D4650465946019A00F002
:1002C0000DF910EB08006141002487EA115284EA1D
:1002D000E7731A4340D0009A62B3019A012A4FEAA9
:1002E000075215DC001B61EB02014FF0004202EAED
:1002F0000752CDE90042001C41F5801132462B46E1
:1003000000F00DF903B0BDE8F08F40462146F9E753
:10031000001B61EB0201001C41F5801300185B41DA
:100320002018A2F5001747EB030140EAD570B61973
:100330006D4111E06D084FEA360645EAC0754FEA97
:100340000752001B61EB0201001C41F580114908B6
:100350004FEA30000019514132462B4603B0BDE848
:10036000F04F00F0CDB80098012240000023D0EB00
:10037000020263EBE073009821464FEAE074B8EBA9
:10038000000061EB0401E9E783F000435BE781F0E3
:10039000004158E72DE9F04D81EA030404F0004BD9
:1003A00021F0004514464FF0000A23F0004150EAC6
:1003B000050220D054EA01021DD0C5F30A570246B7
:1003C000C5F31303C1F31300C1F30A5640F48015BB
:1003D00043F48013A7EB0608101BD64608F2FD383D
:1003E00073EB050002D308F1010801E092185B41AC
:1003F000B8F1000F03DA00200146BDE8F08D0020BF
:100400004FF48011064684460EE0171B73EB050778
:1004100005D3121B63EB050306434CEA010C4908A4
:100420004FEA300092185B4150EA0107EDD152EAE1
:10043000030012D082EA040083EA0501084305D0D4
:10044000101BAB4106D20122002306E000224FF030
:10045000004302E06FF0010253101AEB06004CEB70
:10046000085110EB0A0041EB0B01BDE8F04D00F024
:1004700047B830B50B46014600202022012409E090
:1004800021FA02F59D4205D303FA02F5491B04FA4D
:1004900002F52844151EA2F10102F1DC30BD202A2C
:1004A00004DB203A00FA02F1002070479140C2F1CB
:1004B000200320FA03F3194390407047202A04DBFD
:1004C000203A21FA02F00021704721FA02F3D040CD
:1004D000C2F120029140084319467047202A06DBEA
:1004E000CB17203A41FA02F043EAE07306E041FA02
:1004F00002F3D040C2F120029140084319467047F0
:1005000010B5141E73F1000408DA401C41F100011B
:1005100092185B411A4301D120F0010010BD2DE972
:10052000F04D92469B4611B1B1FA81F202E0B0FA69
:1005300080F220329046FFF7B2FF04460F4640EAB1
:100540000A0041EA0B0153465A46084313D01146AC
:1005500053EA010019D0C8F140025046FFF7AEFF40
:1005600005460E46504659464246FFF798FF084357
:1005700005D0012004E020463946BDE8F08D00207A
:10058000054346EAE0762C4337430A986305E40ABC
:10059000A0EB08000022FD0A44EA47540A3002D5C5
:1005A00000200146E9E7010510196941DDE9084528
:1005B00000196941BDE8F04DA2E72DE9FE4F81EA3F
:1005C000030404F0004421F0004100944FF0000BBC
:1005D00023F0004350EA01045ED052EA03045BD0EA
:1005E000C3F30A54C1F30A552C44A4F2F334019422
:1005F000A0FB0254C1F3130141F48011C3F31303B0
:1006000043F4801301FB024400FB034E840A970A63
:1006100044EA815447EA8357A4FB076802958D0A90
:1006200005FB07854FEA932C04FB0C542705029D1C
:100630004FEA065847EA1637B5EB08056EEB070C8C
:10064000870E920E47EA811742EA8312A7FB020146
:10065000B6EB0B0164EB00042B0D43EA0C335E1880
:1006600044EB1C50DA465146E7FB0201C5F3130484
:100670004FEA0B3343EA14534FEA0432019C43EA36
:100680000603A4F10C040294009CCDE900B4FFF72A
:1006900046FF03B0BDE8F08F00200146F9E7C1F343
:1006A0000A52C1F3130140F2FF3341F480119A4220
:1006B00002DA00200146704740F233439A42A2F228
:1006C000334202DC5242FFF7F9BEFFF7E8BE0000FA
:1006D00030B5041E71F1000404DB4FF000444042C9
:1006E00064EB0101141E73F1000405DB1C464FF09E
:1006F0000043524263EB0403994208BF904230BD6D
:10070000064C074D06E0E06840F0010394E807005E
:1007100098471034AC42F6D3FFF73AFDB46B0008AB
:10072000D46B0008F0B58BB0DDF840C09E4614468F
:100730000D4606460A900991089207938DF81BC052
:100740000A980999089A079B9DF81BC06F46C7F83D
:1007500000C0CDF814E004940395029600F0C4FCA8
:100760000BB0F0BDF0B58BB0DDF840C09E4614462E
:100770000D4606460A900991089207938DF81BC012
:100780000A980999089A079B9DF81BC06F46C7F8FD
:1007900000C0CDF814E0049403950296FFF7C2FF61
:1007A0000BB0F0BD80B586B00146059000208DF8F5
:1007B0001300059AD2F8B020019100909047039061
:1007C000009802900399059AD26D914207D2FFE7F3
:1007D0000598C06DC04303990844029005E0039852
:1007E0000599C96D401A0290FFE70298B0F57A7F2B
:1007F00004D9FFE703980599C865FFE79DF8130042
:1008000006B080BD80B584B00A46034603908DF8DB
:100810000B1000208DF80A008DF8090040F21C0032
:10082000C2F2000000680192009300F0EBF88DF82E
:100830000A009DF80A00002804D0FFE701208DF887
:100840000A00DAE003989DF80B1000F0EFFC8DF839
:100850000A009DF80A00002804D0FFE702208DF866
:100860000A00CAE003989DF80B1000EB8100806934
:100870004CF2BF61C0F22D01884219DCFFE70398FA
:1008800090F85B00002812D1FFE7039800F03EFBD0
:100890008DF80A009DF80A00002804D0FFE7032025
:1008A0008DF80A00A9E001208DF80900FFE718E0A3
:1008B000039890F85B00012812D1FFE7039800F03D
:1008C000F1FA8DF80A009DF80A00002804D0FFE72D
:1008D00004208DF80A0090E001208DF80900FFE760
:1008E000FFE703989DF80B1000EB8100806941F24F
:1008F000CF21C0F21301884207DCFFE703980221F1
:1009000000F07EFF8DF80A0014E003989DF80B10AC
:1009100000EB8100806942F29F51C0F226018842BB
:1009200007DCFFE70398012100F06AFF8DF80A0059
:10093000FFE7FFE79DF80A00002804D0FFE7052045
:100940008DF80A0059E0039841788078884209D0F0
:10095000FFE79DF8090001308DF809000398417800
:100960008170FFE79DF8090000281FD0FFE703987A
:1009700000F072FE8DF80A009DF80A00002804D0ED
:10098000FFE706208DF80A0037E003989DF80B106A
:1009900000F04CFC8DF80A009DF80A00002804D0F5
:1009A000FFE709208DF80A0027E0FFE70398407869
:1009B00000281ED0FFE70398002100F021FF8DF8EA
:1009C0000A009DF80A00002804D0FFE70A208DF8ED
:1009D0000A0012E0039800F03FFE8DF80A009DF82F
:1009E0000A00002804D0FFE70B208DF80A0004E07D
:1009F000FFE7039841788170FFE79DF80A0004B093
:100A000080BD000080B584B00146039000208DF8C1
:100A10000B000398019100F0DDF88DF80B009DF8B4
:100A20000B0000280ED0FFE7039800F007F98DF8BF
:100A30000B000398D0F8B0008047DDF80CE0CEF84A
:100A40005C00FFE79DF80B00002806D1FFE7039844
:100A5000FFF7A8FE8DF80B00FFE79DF80B0004B030
:100A600080BD000080B588B00A46034607908DF827
:100A70001B1000208DF81A0001218DF81910059027
:100A800004900798407801280392029304D1FFE76D
:100A900002208DF8190035E007984078022804D12B
:100AA000FFE704208DF819002BE007984078032811
:100AB00004D1FFE708208DF8190021E0079840785D
:100AC000042804D1FFE710208DF8190017E00798DB
:100AD0004078052804D1FFE720208DF819000DE0AB
:100AE00007984078062804D1FFE740208DF81900C8
:100AF00003E001208DF81900FFE7FFE7FFE7FFE7BC
:100B0000FFE7FFE70020059044F64030C0F24C00BC
:100B1000049007989DF81B100844407900282DD0B8
:100B2000FFE70798407B002828D0FFE707989DF84B
:100B30001B1000EB8100806BC117049A059BA2FB80
:100B400000CE02FB01E103FB0010CDF810C00590C0
:100B5000049805994FF6FF72C0F27F0200230193BB
:100B6000FFF72EFB059104909DF819200498059934
:100B7000019BFFF725FB0591049009E007989DF87C
:100B80001B1000EB81000021816305910491FFE7B8
:100B9000049807999DF81B2001EB820188619DF85C
:100BA0001A0008B080BD000080B586B00A46034632
:100BB00005908DF8131005989DF813100392029379
:100BC00000F07CFF05990190084600F0B7FE06B0E2
:100BD00080BD000080B584B00146039000208DF8F0
:100BE0000B008DF80A00039A107003980DF10B02A8
:100BF0000191114600F058FC8DF80A009DF80A009A
:100C0000002806D0FFE701208DF80A00039908703C
:100C10000FE0039890F85A009DF80B10884207D017
:100C2000FFE702208DF80A00039801210170FFE719
:100C3000FFE79DF80A0004B080BD000080B584B0D5
:100C40000146039000208DF80B000398019100F0FD
:100C50003FFE8DF80B009DF80B00002804D0FFE745
:100C600001208DF80B0045E00398B02100F000FD55
:100C70008DF80B000398FFF7ADFF8DF80B009DF882
:100C80000B00002804D0FFE702208DF80B0031E0B4
:100C9000039800F06DF98DF80B009DF80B0000280B
:100CA00004D0FFE703208DF80B0023E00398002118
:100CB00000F0A6FD8DF80B009DF80B00002804D075
:100CC000FFE704208DF80B0014E00398002100F0EA
:100CD000D3FD03990090084600F0BEFC8DF80B0090
:100CE0009DF80B00002804D0FFE705208DF80B00CD
:100CF00000E0FFE79DF80B0004B080BD80B58CB02C
:100D000001460B900B980022C4F2020242660B9837
:100D1000082282660B98406E0028039106D0FFE7F8
:100D20000B98406E012101F01FF9FFE70B9800219D
:100D3000C1660B98012101670B98C06E002806D090
:100D4000FFE70B98C06E012101F00EF9FFE70020CC
:100D50000A90099008900790069005900B99896E6B
:100D600005910690022107910890012109910A90AE
:100D70000B98406E05A901F0B7FC0B99D1F864E01F
:100D8000896E0290704601F0BBFD0B98C06E002882
:100D900013D0FFE70B98006F0590012006900B9889
:100DA000C06E05A901F0A0FC0B99D1F86CE0096FA9
:100DB0000190704601F0A4FDFFE70B980021C4F2FA
:100DC0000201C0F88C100B981022C0F890200B98EC
:100DD000C0F884100B982022C0F888200B98C167B7
:100DE0000B984022C0F880200B9841670B98802117
:100DF00081670B980521C0F8A4100B9843F20001FD
:100E0000C4F20101C0F894100B980021C0F8A8109A
:100E10008DF81310FFE79DF8130007281EDCFFE78D
:100E20000B989DF813100844002141730B989DF80E
:100E30001320104441710B989DF8132000EB8200A1
:100E400081610B989DF8132000EB82008163FFE71E
:100E50009DF8130001308DF81300DCE70B9800219A
:100E600081700B9841700B9801700B98F02280F8FC
:100E70005A200B98A0F89C100B9880F899100B98AA
:100E8000012180F89A100CB080BD000082B00146AC
:100E90000190009102B0704782B00146019000912C
:100EA00002B0704780B586B00146059000208DF8ED
:100EB00013008DF81200059A0DF1130303901046EC
:100EC000039A029111461A4600F004FB8DF81200B5
:100ED0009DF81200002814D1FFE79DF8130000F0E0
:100EE000FD008DF8130005989DF813200021019155
:100EF00000F024FE8DF812000598019980F85B102F
:100F0000FFE79DF8120006B080BD000080B584B0F8
:100F10000146039000208DF80B008DF80A00039A1B
:100F20000DF10B0301901046019A009111461A46EB
:100F300000F0D0FA8DF80A009DF80A00002813D1BD
:100F4000FFE79DF80B0040F002008DF80B000398BE
:100F50009DF80B20002100F0F1FD8DF80A000398A8
:100F6000012180F85B10FFE79DF80A0004B080BD06
:100F700080B584B00146039000208DF80B008DF8F9
:100F80000A00039A0DF10B0301901046019A00919B
:100F900011461A4600F09EFA8DF80A009DF80A00E4
:100FA00000280FD1FFE79DF80B0040F004008DF8FA
:100FB0000B0003989DF80B20002100F0BFFD8DF879
:100FC0000A00FFE79DF80A0004B080BD2DE9F04754
:100FD00098B001461790179874300C9102F0B8FE43
:100FE000179974310B90084602F0BCFE0DA94FF022
:100FF000280E0A9008467146FFF71AF900200D9056
:101000004FF482710E910F90179890F89900002874
:101010000DD1FFE7002010901798D0F88410D0F879
:10102000880009900846099901F0FEFB02E00220C1
:101030001090FFE7179890F89900002803D1FFE778
:101040000020119002E001201190FFE74FF40070A2
:1010500012903820139000201490159007211691BB
:10106000179974310D9A0E9BDDF83CC0DDF840E015
:10107000119C129D139E149FDDF85480DDF858904A
:10108000EA46CAF81890CAF81480CAF81070CAF86C
:101090000C60CAF80850CAF80440CAF800E008908A
:1010A000084611461A46634602F066FE0899079004
:1010B000084618B0BDE8F08780B586B013468C4668
:1010C000864605908DF813100392059874309DF8AC
:1010D0001310039A0293CDF804C0CDF800E002F09B
:1010E00099FE06B080BD000070B58CB0DDF840C040
:1010F0009E4614460D4606460A90099108920793AB
:101100008DF81BC00A980028CDF814E004940395CC
:1011100002960DD0FFE70A9840F21C01C2F20001CE
:101120000968884204D1FFE70A98FFF7E7FD1DE050
:101130000A98002808D0FFE70A98002804D1FFE7A2
:101140000A98FFF7A3FE10E00A98002808D0FFE7EE
:101150000A98002804D1FFE70A98FFF79DFE03E0F4
:1011600001208DF82F005CE0FFE7FFE79DF81B00F2
:10117000002813D0FFE70A98012180F898100A98F8
:10118000FFF724FF40F23001C2F2000141F2B90E34
:10119000C0F6000EC1F800E0019012E00A980021AC
:1011A00080F898100A9800F00FFA40F23001C2F26D
:1011B000000141F2296EC0F6000EC1F800E0009077
:1011C000FFE70898002804D0FFE708980A99086606
:1011D00006E00A9841F6E561C0F600010166FFE706
:1011E0000998002805D0FFE709980A99C1F8AC00D2
:1011F00007E00A9841F6F961C0F60001C0F8AC10AA
:10120000FFE707980A99C1F8B0000A98D0F8B00033
:1012100080470A99C8650A98FFF710FD8DF82F00DE
:10122000FFE79DF82F000CB070BD000080B59EB0A8
:101230000A4603461C908DF86F1000208DF86E0052
:101240008DF86C00ADF86A009DF86F0006281992C1
:10125000189300F32081FFE71C989DF86F10084455
:10126000407B012807D1FFE71C989DF86F1000F024
:1012700003FB179013E01C989DF86F100844407B07
:10128000022807D1FFE71C989DF86F1000F00CFAB8
:10129000169003E001208DF8770001E1FFE71C982C
:1012A00090F85A00322808DCFFE71C98016E90F88D
:1012B0005A00C0F580708847FFE71C98D0F88C1062
:1012C000D0F8900015900846159901F0ADFA1C98D9
:1012D00000F034FB8DF86E009DF86E00002840F0A1
:1012E000CA80FFE740F23000C2F2000000681C999B
:1012F000FC2200231490084611461A46149B984776
:101300001C99D1F8AC100029139009D0FFE71C9864
:10131000D0F8AC0014211290084612998847FFE7D4
:1013200040F23000C2F2000001681C9A00231190C4
:101330001046109119461A46DDF840C00F93E04759
:101340001C99D1F8AC1014220E90104688471198C1
:1013500001681C9801220D9111460F9A0D9B984728
:101360001C99D1F8AC1019220C90104688471C9893
:10137000007800287AD1FFE740F23000C2F2000086
:1013800001681C9AFF230DF16A0C0B9010460A911C
:1013900019466246DDF828E00993CDF820C0F047F1
:1013A0000B990A681C9BDDF820C00CF1010E079018
:1013B0001846099906927246069B98470B990A6847
:1013C0001C9BDDF820C00CF1020E0590184609990F
:1013D00004927246049B98479DF86A101C9A1379F0
:1013E00002EB830291631C990A7901EB82018A6BFB
:1013F0009DF86B3043EA02228A631C990A7901EB5B
:1014000082018A6B9DF86C3043EA02228A631C9940
:101410009DF86F20114400224A711C990A7901EB52
:101420008201896BB1F5000F03900EDBFFE71C987A
:10143000017900EB8100816BC1F1807181631C989F
:10144000017908440121417105E01C9801790844A3
:1014500002214171FFE71C980179FFF703FB1C99FA
:1014600091F803E081F804E0029003E005208DF894
:101470006E00FFE703E006208DF86E00FFE7FFE750
:101480001C98D0F88C10D0F8900001900846019973
:1014900001F036FAFFE79DF86E008DF87700FFE760
:1014A0009DF877001EB080BD80B586B00A46034621
:1014B00005900491059804994FF0030C039161463F
:1014C000DDF80CC002926246019300F003F806B00A
:1014D00080BD000080B590B013468C4686460F90C4
:1014E0008DF83B100D9200208DF833000F980B9370
:1014F000CDF828C0CDF824E000F020FA8DF83300B4
:101500009DF83300002850D1FFE70F98D0F88C10D9
:10151000D0F8900008900846089901F085F940F24B
:101520003000C2F200000168DDF83CE09DF83B208D
:10153000012363F31F1200230790704606911146A2
:101540001A46DDF818E00593F0478DF833009DF852
:10155000330040008DF83300079801680F98059A12
:1015600004911146049B98479DF8331008438DF869
:1015700033009DF8330040008DF833000F98D0F809
:10158000AC000A2103900846039988470798016830
:101590000F980D9AFF2302911946029B98479DF8D8
:1015A000331008438DF83300FFE70F98D0F88C1004
:1015B000D0F8900001900846019901F0A1F99DF83A
:1015C000330010B080BD000080B586B001460590A4
:1015D00005987430049102F0BBFB059974310390B7
:1015E000084602F02DFC059991F899100029029007
:1015F0000BD1FFE70598D0F88410D0F8880001904F
:101600000846019901F010F90AE00598D0F8841015
:10161000D0F8880000900846009901F071F9FFE7C2
:10162000002006B080BD000080B586B013468C4611
:10163000864605908DF813100392059874309DF836
:101640001310039A0293CDF804C0CDF800E002F025
:1016500001FC06B080BD000080B582B0014601905B
:101660000198F02200911146FFF79EFA02B080BD6A
:1016700080B586B00A46034605908DF813109DF894
:101680001300059981F85A0005989DF813104FF042
:10169000030C03916146DDF80CC00292624601938F
:1016A00000F04CFA06B080BD80B586B00A4603460D
:1016B00004908DF80F1000208DF80E009DF80F009B
:1016C00000280292019305D0FFE79DF80F0004283F
:1016D00014D1FFE79DF80F00042806D1FFE79DF81D
:1016E0000F0004388DF80F00FFE7049801210091E6
:1016F000009A00F023FA8DF80E006CE09DF80F00C0
:10170000012805D0FFE79DF80F00052818D1FFE755
:101710009DF80F00052806D1FFE79DF80F0004385B
:101720008DF80F00FFE79DF80F0040008DF80F00C7
:1017300004980121232200F001FA8DF80E0049E0FF
:101740009DF80F00022805D0FFE79DF80F0006283E
:1017500018D1FFE79DF80F00062806D1FFE79DF896
:101760000F0004388DF80F00FFE79DF80F004000D0
:101770008DF80F0004980121452200F0DFF98DF863
:101780000E0026E09DF80F00032805D0FFE79DF826
:101790000F00072818D1FFE79DF80F00072806D192
:1017A000FFE79DF80F0004388DF80F00FFE79DF864
:1017B0000F0040008DF80F0004980121672200F00F
:1017C000BDF98DF80E0003E002208DF8170012E03D
:1017D000FFE7FFE7FFE704989DF80F100844022198
:1017E000417304989DF80F20104481739DF80E00FA
:1017F0008DF81700FFE79DF8170006B080BD0000C8
:1018000080B584B00A46034603908DF80B10002083
:101810008DF80A008DF80900039802210DF10A0CD9
:10182000019262460093FFF755FE8DF809009DF87E
:10183000090000281CD1FFE79DF80A0000F078009D
:101840008DF80A009DF80B009DF80A1008438DF8EA
:101850000A009DF80B0000F00700039948700398F8
:101860009DF80A20022100F069F98DF80900FFE7D0
:101870009DF8090004B080BD80B586B00A460346D5
:1018800004908DF80F109DF80F0008280292019324
:1018900004DBFFE701208DF8170014E09DF80F002E
:1018A0000499C87004989DF80F10084401214173F1
:1018B00004989DF80F2012010832D2B200F03EF9D0
:1018C0008DF81700FFE79DF8170006B080BD0000F7
:1018D00080B584B00146039000208DF80B008DF890
:1018E0000A000398FE220191114600F0E7F88DF8F6
:1018F0000B009DF80B0000281BD1FFE703980DF1AA
:101900000A01FFF7D1FD8DF80B009DF80B000028B0
:1019100005D1FFE79DF80A00F02804D0FFE7012079
:101920008DF80B0004E00398F02180F85A10FFE7CF
:10193000FFE79DF80B0004B080BD000080B58EB0BD
:1019400001460C9000200B900A90099008900C988A
:10195000D0F8B0000028079106D0FFE70C98D0F827
:10196000B00080470A90FFE70C98406E002804D131
:10197000FFE705208DF837009BE0FFE70C98416EEC
:10198000806E06900846069900F02AFF002801D0D4
:10199000FFE73EE00C98D0F8B000002828D0FFE721
:1019A0000C98D0F8B00080470B900B98DDF828E039
:1019B000704508D2FFE70A98C0430B9908440021FC
:1019C0000991089006E00B980A99401A00210991A4
:1019D0000890FFE708980999653871F100010590B2
:1019E000049104D3FFE701208DF8370061E00FE098
:1019F0000B9801300B900B9841F68121C0F2060143
:101A0000884204D3FFE702208DF8370051E0FFE75A
:101A1000B4E7FFE70C98416E806E03900846039987
:101A200000F0DEFE002801D1FFE73EE00C98D0F880
:101A3000B000002828D0FFE70C98D0F8B00080470D
:101A40000B900B98DDF828E0704508D2FFE70A9864
:101A5000C0430B99084400210991089006E00B98B7
:101A60000A99401A002109910890FFE708980999FE
:101A7000653871F100010290019104D3FFE7032062
:101A80008DF8370015E00FE00B9801300B900B98A4
:101A900041F68121C0F20601884204D3FFE7042009
:101AA0008DF8370005E0FFE7B4E700208DF8370038
:101AB000FFE79DF837000EB080BD000080B588B00C
:101AC0000A46034607908DF81B1000208DF81A0077
:101AD000079805920493FFF731FF8DF81A009DF8DF
:101AE0001A0000281CD1FFE70798D0F88C10D0F816
:101AF000900003900846039900F096FE40F23000F3
:101B0000C2F20000006807999DF81BE000220290D5
:101B100008467146DDF808E0F0478DF81A00FFE747
:101B20000798D0F88C10D0F89000019008460199E1
:101B300000F0E6FE9DF81A0008B080BD80B58CB0BC
:101B400013468C4686460B908DF82B108DF82A2074
:101B500000208DF829000B980993CDF820C0CDF80E
:101B60001CE0FFF7EBFE8DF829009DF82900002806
:101B700048D1FFE70B98D0F88C10D0F89000069071
:101B80000846069900F050FE40F23000C2F2000014
:101B90000168DDF82CE09DF82B2042F05002002374
:101BA00005907046049111461A46DDF810E0039343
:101BB000F0478DF829009DF8290040008DF8290094
:101BC000059801680B98039A02911146029B984769
:101BD0009DF8291008438DF829009DF82900400040
:101BE0008DF82900059801680B989DF82A2001912D
:101BF0001146039A019B98479DF8291008438DF8D8
:101C00002900FFE70B98D0F88C10D0F890000090D6
:101C10000846009900F074FE9DF829000CB080BDC4
:101C2000FFE7FEE780B500F01FF880BD80B500F04B
:101C300021F880BD80B5FFF7F5FF80BD80B5FFF7C7
:101C4000F5FF80BD80B582B043F20000C4F202000F
:101C500000F0C8FC40F2040EC2F2000E01218EF822
:101C60000010019002B080BD40F20400C2F20000FA
:101C70000078704780B5FFF7E5FF4FF4805000F023
:101C80004FFB40F20400C2F200004FF0000E80F85B
:101C900000E080BD80B500F00DF880BD80B500F09B
:101CA00017F880BD80B5FFF7F5FF80BD80B5FFF761
:101CB000F5FF80BD80B500F0C9FF002807D0FFE721
:101CC00000F0B2FF00F042FF00F022FFFFE780BD0E
:101CD00080B500F0C3FF002808D0FFE700F02CFF1C
:101CE00000F020FF04F0EEF904F0D8F980BD000008
:101CF00080B546F20040C4F2020000F095FC0028D6
:101D00000BD0FFE746F20040C4F20200002100F0D1
:101D100095FC002801D0FFE7FFE780BD80B546F2C3
:101D20000040C4F2020000F07FFC00280BD0FFE767
:101D300046F20040C4F20200012100F07FFC0028BE
:101D400001D0FFE7FFE780BD7047000080B500F0DD
:101D500005F880BD80B5FFF7F9FF80BD80B584B080
:101D60004FF0804001F042FA002819D0FFE74FF011
:101D70008040039001F01AFA40F6047EC2F2000E91
:101D8000CEF8000040F61470C2F2000090F800E0B7
:101D90000EF1010E80F800E0039801F0DFF9FFE793
:101DA0004FF0804001F02CFA002819D0FFE74FF0E7
:101DB0008040029001F002FA40F6047EC2F2000E6A
:101DC000CEF8040040F61470C2F2000090F801E072
:101DD0000EF1010E80F801E0029801F0C9F9FFE769
:101DE0004FF0804001F016FA002819D0FFE74FF0BD
:101DF0008040019001F0EAF940F6047EC2F2000E44
:101E0000CEF8080040F61470C2F2000090F802E02C
:101E10000EF1010E80F802E0019801F0B3F9FFE73E
:101E20004FF0804001F000FA002819D0FFE74FF092
:101E30008040009001F0D2F940F6047EC2F2000E1C
:101E4000CEF80C0040F61470C2F2000090F803E0E7
:101E50000EF1010E80F803E0009801F09DF9FFE714
:101E600004B080BD80B582B0014601900198009118
:101E700000F04CF802B080BD80B582B00146019000
:101E80000198009100F01EF802B080BD80B584B0CA
:101E90000146039003980028029110D0FFE7FFE766
:101EA0000398411E0391002808D0FFE74FF47A7091
:101EB00000F008F800F016FA0190F1E7FFE704B02F
:101EC00080BD000080B584B00146039003980028CF
:101ED000029105D0FFE7039802F008FD0190FFE7AB
:101EE00004B080BD80B582B0014601900198009198
:101EF000FFF7B8FF02B080BD80B582B00146019007
:101F000001980091FFF7B8FF02B080BD80B584B0A2
:101F1000014603900398002802910FD0FFE702F0DA
:101F2000CBFC002805D1FFE7039802F0C9FC019023
:101F300003E00398FFF7AAFFFFE7FFE704B080BDC7
:101F400080B584B00A46034603908DF80B100398C1
:101F50009DF80B100192009300F01AF804B080BDB8
:101F600080B500F0E7F880BD80B584B00A4603462E
:101F700003908DF80B1003989DF80B1001920093BD
:101F8000FFF7DEFF04B080BD80B5FFF7E9FF80BD3D
:101F900080B584B00A46034603908DF80B10039871
:101FA0000021C4F202018842019200930ED1FFE7A2
:101FB0009DF80B00002804D0FFE7012000F0C4F9D1
:101FC00003E0012000F09CF9FFE7B1E0039840F244
:101FD0000041C4F2020188420ED1FFE79DF80B00D8
:101FE000002804D0FFE7022000F0AEF903E0022051
:101FF00000F086F9FFE79BE0039840F60001C4F289
:10200000020188420ED1FFE79DF80B00002804D0A2
:10201000FFE7042000F098F903E0042000F070F9D5
:10202000FFE785E0039840F60041C4F202018842D0
:102030000ED1FFE79DF80B00002804D0FFE7082031
:1020400000F082F903E0082000F05AF9FFE76FE0A2
:10205000039841F20001C4F2020188420ED1FFE769
:102060009DF80B00002804D0FFE7102000F06CF969
:1020700003E0102000F044F9FFE759E0039841F233
:102080000041C4F2020188420ED1FFE79DF80B0027
:10209000002804D0FFE7202000F056F903E02020BC
:1020A00000F02EF9FFE743E0039841F60001C4F287
:1020B000020188420ED1FFE79DF80B00002804D0F2
:1020C000FFE7402000F040F903E0402000F018F95D
:1020D000FFE72DE0039841F60041C4F20201884277
:1020E0000ED1FFE79DF80B00002804D0FFE7802009
:1020F00000F02AF903E0802000F002F9FFE717E082
:10210000039842F20001C4F20201884210D1FFE7B5
:102110009DF80B00002805D0FFE74FF4807000F019
:1021200013F904E04FF4807000F0EAF8FFE7FFE7EE
:1021300004B080BD80B582B00020C4F2020001214D
:102140000191FFF725FF40F20040C4F2020001991F
:10215000FFF71EFF40F60000C4F202000199FFF7EE
:1021600017FF40F60040C4F202000199FFF710FF8C
:1021700041F20000C4F202000199FFF709FF41F2A9
:102180000040C4F202000199FFF702FF41F600008F
:10219000C4F202000199FFF7FBFE41F60040C4F2D1
:1021A00002000199FFF7F4FE42F20000C4F20200BF
:1021B0000199FFF7EDFE4FF4804000F09BF902B06B
:1021C00080BD000040F22C00C2F20000007843F60F
:1021D0004061C2F200010A681044086070470000C4
:1021E00080B582B040F60000C5F2060000F07CFE2B
:1021F00000280ED0FFE740F60000C5F2060001906F
:1022000000F03CFE019800F043FE019800F04CFE07
:10221000FFE740F60000C5F2060000F051FE00287E
:1022200007D0FFE740F60000C5F2060000F01CFEF4
:10223000FFE740F60000C5F2060000F04BFE002864
:102240000DD0FFE740F60000C5F2060000F056FE94
:1022500040F6187EC2F2000ECEF80000FFE702B092
:1022600080BD00001EF0040F0CBFEFF30880EFF3F9
:10227000098000F001B8704782B00146019040F635
:102280001C70C2F200000022C261826142610261E0
:10229000C260826042600260019A12680260019A24
:1022A00052684260019A92688260019AD268C26064
:1022B000019A12690261019A52694261019A926916
:1022C0008261019AD269C26101BE009102B0704779
:1022D00080B5FFF7C7FFFFE7FEE7000080B500F01D
:1022E00005F880BD80B5FFF7F9FF80BD80B543F2EA
:1022F0000000C4F2000000F0BFFB002080BD000021
:1023000082B001460190019843F63002C4F2020205
:10231000136823EA00001060009102B070470000CB
:1023200084B001460390039843F63002C4F20202DF
:102330001368184310601068039A104002900298C6
:102340000191009004B0704784B001460390039857
:1023500043F63002C4F2020213681843106010689A
:10236000039A1040029002980191009004B07047C7
:1023700082B001460190019843F61002C4F20202B5
:10238000136818431060009102B0704782B0014694
:102390000190019843F61002C4F20202136823EA86
:1023A00000001060009102B07047000082B001464A
:1023B0000190019843F64002C4F20202136823EA36
:1023C00000001060009102B07047000082B001462A
:1023D0000190019843F64002C4F20202136823EA16
:1023E00000001060009102B07047000084B0014608
:1023F0000390039843F64002C4F2020213681843A4
:1024000010601068039A10400290029801910090A9
:1024100004B0704784B001460390039843F640022D
:10242000C4F202021368184310601068039A104047
:10243000029002980191009004B0704782B001466A
:102440000190019843F62002C4F202021368184377
:102450001060009102B0704782B00146019001986F
:1024600043F62002C4F20202136818431060009180
:1024700002B0704782B001460190019843F62002F5
:10248000C4F20202136823EA00001060009102B057
:102490007047000082B001460190019843F6200287
:1024A000C4F20202136823EA00001060009102B037
:1024B0007047000082B001460190019843F6440243
:1024C000C4F20202136823EA00001060009102B017
:1024D0007047000082B001460190019843F6440223
:1024E000C4F20202136823EA00001060009102B0F7
:1024F0007047000084B001460390039843F64402FD
:10250000C4F202021368184310601068039A104066
:10251000029002980191009004B0704784B0014687
:102520000390039843F64402C4F20202136818436E
:1025300010601068039A1040029002980191009078
:1025400004B0704784B001460390039843F64402F8
:10255000C4F202021368184310601068039A104016
:10256000029002980191009004B0704782B0014639
:102570000190019843F62402C4F202021368184342
:102580001060009102B0704782B00146019001983E
:1025900043F62402C4F2020213681843106000914B
:1025A00002B0704782B001460190019843F62402C0
:1025B000C4F20202136823EA00001060009102B026
:1025C0007047000082B001460190019843F6240252
:1025D000C4F20202136823EA00001060009102B006
:1025E0007047000080B584B00146039001208DF84B
:1025F0000B00039843F20002C4F2020290420191E0
:1026000009D1FFE74FF480500090FFF7B1FE00982A
:10261000FFF7BCFE03E000208DF80B00FFE79DF8FC
:102620000B0004B080BD000082B00146019001980B
:102630000068C0F34010009102B0704784B00A46B1
:102640000346039002910398029946F6043CC0F6B3
:10265000000C1CF801104058C0F3001001920093C8
:1026600004B0704782B001460190019843F61442CD
:10267000C4F201021060009102B0704743F60040BE
:10268000C4F20200016841F48061016070470000FB
:1026900043F60040C4F20200016841F40071016099
:1026A0007047000043F60040C4F20200016841F4A4
:1026B000807101607047000043F60040C4F20200E0
:1026C000006800F00F00704782B00146019043F6A9
:1026D0000040C4F20200026822F00F02019B1A437C
:1026E0000260009102B0704780B588B00A46034688
:1026F000079006910020059004900698006890FAD3
:10270000A0F0B0FA80F0059003920293FFE70698DC
:1027100000680599C84000284AD0FFE7069800687D
:102720000599012202FA01F108400490049800285A
:102730003AD0FFE707980499069A526800F004F926
:1027400006984068012805D0FFE7069840680228EF
:1027500007D1FFE707980499069A926800F06CF990
:10276000FFE707980499069A126900F045F9069860
:102770004068022817D1FFE7049890FAA0F0B0FA59
:1027800080F0072807D8FFE707980499069A52694E
:1027900000F074F806E007980499069A526900F070
:1027A0008DF8FFE7FFE7FFE7059801300590AEE7FA
:1027B00006984068012805D0FFE70698406802287F
:1027C0000AD1FFE7079806990A68C968019111467E
:1027D000019A00F0F9F8FFE7012008B080BD000081
:1027E00084B00A4603460390029103980069029957
:1027F0000840401AB0FA80F040090192009304B0FA
:102800007047000084B00A46034603900291039883
:10281000006902990840401AB0FA80F0400901921C
:10282000009304B07047000084B00A46034603904A
:10283000029102980004039988610192009304B008
:102840007047000084B00A46034603900291029844
:102850000004039988610192009304B0704700005E
:1028600084B00A460346039002910298000403993B
:1028700088610192009304B07047000080B586B073
:1028800013468C4686460590049103920598006A8B
:10289000049991FAA1F1B1FA81F189000F228A40DD
:1028A0009043039A02FA01F10843059908620293E2
:1028B000CDF804C0CDF800E006B080BD80B586B08C
:1028C00013468C4686460590049103920598406A0B
:1028D0000499090A91FAA1F1B1FA81F189000F2254
:1028E0008A409043039A02FA01F10843059948622D
:1028F0000293CDF804C0CDF800E006B080BD000022
:1029000084B00A46034603900291029803998861B5
:102910000192009304B0704784B00A4603460390C6
:1029200002910298039988610192009304B0704764
:1029300084B00A4603460390029102980399886185
:102940000192009304B0704780B586B013468C4660
:10295000864605900491039205980068049991FABF
:10296000A1F1B1FA81F1490003228A409043039A10
:1029700002FA01F10843059908600293CDF804C0FA
:10298000CDF800E006B080BD80B586B013468C4619
:10299000864605900491039205980068049991FA7F
:1029A000A1F1B1FA81F1490003228A409043039AD0
:1029B00002FA01F10843059908600293CDF804C0BA
:1029C000CDF800E006B080BD80B586B013468C46D9
:1029D00086460590049103920598406804998843BF
:1029E000039A51430843059948600293CDF804C007
:1029F000CDF800E006B080BD80B586B013468C46A9
:102A000086460590049103920598C068049991FA4E
:102A1000A1F1B1FA81F1490003228A409043039A5F
:102A200002FA01F108430599C8600293CDF804C089
:102A3000CDF800E006B080BD80B586B013468C4668
:102A4000864605900491039205988068049991FA4E
:102A5000A1F1B1FA81F1490003228A409043039A1F
:102A600002FA01F10843059988600293CDF804C089
:102A7000CDF800E006B080BD82B00146019001981B
:102A80004AF6AA220260009102B0704784B00A465A
:102A900003460390029103980299B0FBF1F00138CC
:102AA0004EF21401CEF2000108604EF21800CEF290
:102AB0000000002101604EF21000CEF2000005215E
:102AC00001600192009304B07047000047F20000DB
:102AD000C4F20000016841F4807101607047000099
:102AE00047F20400C4F200000068C0F380007047A1
:102AF00082B00146019047F20000C4F20000026873
:102B000022F48042019B1A430260009102B0704798
:102B100043F60C00C4F20200016841F400010160B8
:102B20007047000043F60C00C4F20200016841F453
:102B3000002101607047000043F60C00C4F202005F
:102B4000016821F4006101607047000043F60C0049
:102B5000C4F20200016841F40061016070470000A6
:102B600043F67000C4F20200016841F400410160C4
:102B70007047000043F67000C4F20200016841F49F
:102B8000803101607047000043F60800C4F2020083
:102B9000006800F0F000704743F60800C4F202003D
:102BA000006800F4E050704743F60800C4F20200E9
:102BB000006800F46040704743F60800C4F2020069
:102BC000006800F00C00704743F60800C4F20200F1
:102BD000006800F00C00704780B582B0014601909B
:102BE000009100F09FFF019908600198006800F0D3
:102BF0005BFF019948600198406800F06BFF019904
:102C000088600198406800F079FF0199C86002B0BF
:102C100080BD000043F60000C4F20200016841F4E8
:102C2000803101607047000043F60000C4F20200EA
:102C3000016841F4803101607047000043F60000F4
:102C4000C4F202000068C0F34040704743F60C0035
:102C5000C4F202000068C0B2C009704743F60C001D
:102C6000C4F202000068C0F3C000704743F674006D
:102C7000C4F20200016841F00101016070470000E8
:102C800043F67400C4F202000068C0F340007047CD
:102C9000B0B588B09C4696460C460546079006910E
:102CA0000592049343F60400C4F20200016848F25E
:102CB0000002CFF2BF021140079A069B1A43059B00
:102CC00042EA8312049B1A4311430160CDF80CC001
:102CD000CDF808E00194009508B0B0BDB0B588B05B
:102CE0009C4696460C46054607900691059204932D
:102CF00043F60400C4F20200016848F20002CFF675
:102D0000BF721140079A069B1A43059B42EA831241
:102D100011430160016821F44031049A11430160BC
:102D2000CDF80CC0CDF808E00194009508B0B0BD16
:102D300043F60000C4F20200016841F080710160B6
:102D40007047000043F60400C4F20200006800F07F
:102D50003F00704743F60400C4F20200006800F42C
:102D60008000704743F60400C4F202000068C0F31C
:102D70008810704743F60400C4F20200006800F4B3
:102D80004030704743F60000C4F202000068C0F310
:102D90004060704743F67000C4F20200016821F4FD
:102DA000803101607047000082B00146019043F617
:102DB0000800C4F20200026822F0F002019B1A43EC
:102DC0000260009102B0704782B00146019043F664
:102DD0000800C4F20200026822F4E052019B1A4388
:102DE0000260009102B0704782B00146019043F644
:102DF0000800C4F20200026822F46042019B1A43F8
:102E00000260009102B0704782B00146019043F623
:102E10007000C4F20200026822F44072019B1A435F
:102E20000260009102B0704782B00146019043F603
:102E30000800C4F20200026822F4F812019B1A434F
:102E40000260009102B0704782B00146019043F6E3
:102E50000800C4F20200026822F00302019B1A4338
:102E60000260009102B0704782B001460190019863
:102E70006FF020024260009102B0704782B00146BC
:102E8000019001986FF040024260009102B07047DB
:102E900082B0014601900198026822F004020260AB
:102EA000009102B07047000082B001460190019885
:102EB000026842F004020260009102B07047000014
:102EC00082B00146019001984068C0F34010009123
:102ED00002B0704782B0014601900198406800F04E
:102EE0000100009102B0704782B001460190019844
:102EF0004068C0F38010009102B0704782B0014674
:102F0000019001988068009102B0704780B586B04A
:102F10000146059000208DF81300059843F2000249
:102F2000C4F20102904203910CD1FFE74FF48050AC
:102F30000290FFF71BFB0298FFF734FB01208DF88E
:102F40001300FFE7059843F60001C4F20001884230
:102F50000CD1FFE74FF480400190FFF76FFA019822
:102F6000FFF788FA01208DF81300FFE7059843F674
:102F70000041C4F2000188420CD1FFE74FF4004049
:102F80000090FFF75BFA0098FFF774FA01208DF8C4
:102F90001300FFE79DF8130006B080BD82B0014624
:102FA00001900198026842F040020260009102B074
:102FB0007047000080B586B00A460346059004912C
:102FC00000208DF80F0005980292019300F058F848
:102FD000002837D1FFE7059800684FF6BF71884396
:102FE00004990A684B68D1F808C0D1F80CE01A437C
:102FF00042EA0C0242EA0E020B691A434B691A4379
:103000008B691A43CB691A43096A1143084305992E
:1030100008600598406820F004000499C98A0843B4
:10302000059948600498006AB0F5005F06D1FFE793
:1030300005980499496A00F037F8FFE701208DF8F8
:103040000F00FFE70598C16921F40061C1619DF897
:103050000F0006B080BD000082B0014601900198CB
:10306000806800F00100009102B0704782B0014614
:10307000019001988068C0F34000009102B0704751
:1030800082B00146019001980068C0F38010009161
:1030900002B0704782B0014601900198C068C0B28A
:1030A000009102B07047000084B00A4603460390C6
:1030B0000291BDF80800039908610192009304B0E1
:1030C0007047000084B00A460346039002910398BB
:1030D000406820F01000029908430399486001926B
:1030E000009304B07047000085B00A460346049080
:1030F0008DF80F1004980C3002909DF80F00029983
:1031000008700192009305B07047000082B001463C
:10311000019001980428009109D1FFE74EF21000B8
:10312000CEF20000016841F00401016008E04EF2B7
:103130001000CEF20000016821F004010160FFE7F9
:1031400002B0704782B001460190019840F200023F
:10315000C2F200021060009102B0704782B00146D6
:10316000019001986FF002020261009102B0704775
:1031700082B00146019001986FF004020261009153
:1031800002B0704782B00146019001986FF00802CA
:103190000261009102B0704782B00146019001982F
:1031A0006FF010020261009102B0704782B00146D8
:1031B00001900198406B009102B0704782B00146C7
:1031C00001900198806B009102B0704782B0014677
:1031D00001900198C06B009102B0704782B0014627
:1031E00001900198006C009102B0704782B00146D6
:1031F000019001980069C0F34000009102B070474F
:1032000082B00146019001980069C0F380000091EE
:1032100002B0704782B00146019001980069C0F386
:10322000C000009102B0704782B001460190019841
:103230000069C0F30010009102B0704782B00146EF
:10324000019001986FF020020260009102B0704777
:1032500082B00146019001986FF040020260009137
:1032600002B0704782B00146019001986FF04002B1
:103270000260009102B0704782B00146019001984F
:10328000026922F4904202610198426922F02A0206
:103290004261009102B0704780B58AB00146099042
:1032A00001208DF82300099841F20002C4F20102C6
:1032B0009042079108D1FFE710200690FFF764F9CC
:1032C0000698FFF77FF95CE0099844F20041C4F2E8
:1032D0000001884209D1FFE74FF400300590FFF765
:1032E000BBF80598FFF7D6F84AE0099844F60001C4
:1032F000C4F20001884209D1FFE74FF48020049016
:10330000FFF7AAF80498FFF7C5F838E0099841F2EA
:103310000041C4F20101884208D1FFE72020039058
:10332000FFF732F90398FFF74DF927E0099844F6C3
:103330000041C4F20001884209D1FFE74FF40020A8
:103340000290FFF789F80298FFF7A4F815E00998B2
:1033500045F20001C4F20001884209D1FFE74FF4B1
:1033600080100190FFF778F80198FFF793F803E0D9
:1033700000208DF82300FFE7FFE7FFE7FFE7FFE707
:10338000FFE79DF823000AB080BD000082B001462F
:1033900001900198C26822F04002C260009102B020
:1033A0007047000082B0014601900198C26822F087
:1033B0008002C260009102B07047000082B00146F6
:1033C00001900198C26842F40052C260009102B0BC
:1033D0007047000082B0014601900198C26842F037
:1033E0002002C260009102B07047000082B0014626
:1033F00001900198C26842F04002C260009102B0A0
:103400007047000080B58AB00A46034609900891CB
:1034100000208DF81F00069009980192009300F09B
:10342000B5F800287CD1FFE70998C06849F20C6123
:10343000884308994A68CB68D1F810C089691A4353
:1034400042EA0C02114308430999C8600998089997
:10345000896800F059F909980899496900F042F91A
:1034600002A8FFF7B9FB099841F20001C4F201017B
:10347000884203D1FFE7059806903CE0099844F2A2
:103480000041C4F20001884203D1FFE7049806908E
:1034900030E0099844F60001C4F20001884203D1EB
:1034A000FFE70498069024E0099841F20041C4F235
:1034B0000101884203D1FFE70598069018E00998BA
:1034C00044F60041C4F20001884203D1FFE70498AA
:1034D00006900CE0099845F20001C4F20001884210
:1034E00003D1FFE70498069000E0FFE7FFE7FFE75E
:1034F000FFE7FFE7FFE70698002810D0FFE70898EE
:10350000006800280BD0FFE701208DF81F00099804
:103510000699089A1368926900F07EF8FFE7FFE7C2
:103520009DF81F000AB080BD82B00146019001984D
:103530000068C0F34010009102B0704782B00146AD
:10354000019001980068C0F38010009102B07047AC
:1035500082B00146019001980068C0F3801000918C
:1035600002B0704782B00146019001980068C0B275
:10357000C009009102B0704782B0014601900198E5
:103580000068C0B2C009009102B0704782B0014625
:1035900001900198C068C0F34030009102B07047BC
:1035A00082B0014601900198C068C0F340100091BC
:1035B00002B0704782B0014601900198C068C0F324
:1035C0008010009102B0704782B0014601900198CE
:1035D000C068C0F38010009102B0704782B001460D
:1035E00001900198C068C0B2C009009102B0704754
:1035F00082B0014601900198C068C0B2C009009134
:1036000002B0704782B00146019001984068C0B294
:10361000009102B070470000B0B58CB09C46964651
:103620000C4605460B900A91099208930998B0F54B
:10363000004FCDF81CC0CDF818E00594049527D1B3
:10364000FFE70A981921484308994900B0FBF1F0B7
:1036500048F21F51C5F2EB11A0FB01235B094FEAB1
:10366000031C4FF0640E03FB1E00322303EBC0006B
:10367000A0FB0101F82303EA51130CEB4303C1F350
:103680004211194489B20B9B99600392029026E083
:103690000A981921484308998900B0FBF1F048F2D3
:1036A0001F51C5F2EB11A0FB01235B094FF0640C25
:1036B00003FB1C004FF0320C0CEB0010A0FB0101CF
:1036C0004FF0F00C0CEA511C0CEB0313C1F3431147
:1036D000194489B20B9B996001920090FFE70CB0EE
:1036E000B0BD000084B00A460346039002910398DF
:1036F000406920F44070029908430399486101929F
:10370000009304B07047000084B00A46034603905B
:1037100002910398006920F44050029908430399EC
:1037200008610192009304B07047000084B00A461B
:10373000034603908DF80B109DF80B000399486029
:103740000192009304B0704782B001460190019845
:103750006FF001028260009102B07047FFE7FEE760
:1037600080B582B040F20800C2F20000C1680022B9
:103770004FF4207301900846114600921A4600F05B
:103780000DF8019880684FF42052009900F006F877
:1037900001200199087402B080BD000080B587B097
:1037A00013468C46864606908DF8171004920698AC
:1037B00003900293CDF804C0CDF800E0FFE7049831
:1037C000411E0491002807D0FFE79DF817000399D8
:1037D0004A1C03920870F2E707B080BD83B0002056
:1037E00002900190FFE701988009042814D8FFE7B0
:1037F00040F20800C2F20000C068019930F81100E0
:10380000002804D0FFE7029801300290FFE7FFE7AD
:10381000019801300190E6E70298642148434CF694
:10382000CD41CCF6CC41A0FB0101C1F307210090B2
:10383000084603B07047000080B5FEF733FA80BD3C
:1038400080B58BB013468C4686460A900991089243
:103850000A9800F0070007900798C0F107000528B4
:103860000493CDF80CC0CDF808E003D3FFE70420A3
:10387000019004E00798C0F107000190FFE701986C
:10388000069007980430062803D8FFE70020009030
:1038900003E0079803380090FFE700980590099827
:1038A0000699012202FA01F1013908400599884080
:1038B000089B02FA01F10139194008430BB080BDA1
:1038C00080B58BB013468C4686460A9009910892C3
:1038D0000A9800F0070007900798C0F10700052834
:1038E0000493CDF80CC0CDF808E003D3FFE7042023
:1038F000019004E00798C0F107000190FFE70198EC
:10390000069007980430062803D8FFE700200090AF
:1039100003E0079803380090FFE7009805900998A6
:103920000699012202FA01F10139084005998840FF
:10393000089B02FA01F10139194008430BB080BD20
:1039400080B58BB013468C4686460A900991089242
:103950000A9800F0070007900798C0F107000528B3
:103960000493CDF80CC0CDF808E003D3FFE70420A2
:10397000019004E00798C0F107000190FFE701986B
:10398000069007980430062803D8FFE7002000902F
:1039900003E0079803380090FFE700980590099826
:1039A0000699012202FA01F101390840059988407F
:1039B000089B02FA01F10139194008430BB080BDA0
:1039C00080B588B0032002F029FB02F09DFA4FF089
:1039D000000E71467246CDF81CE0FFF731FF6FF024
:1039E0000B0106900846069902F0A6FA02F08CFA3E
:1039F0000799079AFFF724FF6FF00A010590084620
:103A0000059902F099FA02F07FFA0799079AFFF7F1
:103A100017FF6FF0090104900846049902F08CFA30
:103A200002F072FA0799079AFFF70AFF6FF0040194
:103A300003900846039902F07FFA02F065FA0799AD
:103A4000079AFFF7FDFE6FF0030102900846029906
:103A500002F072FA02F058FA0799079AFFF7F0FE9F
:103A60006FF0010101900846019902F065FA08B073
:103A700080BD000080B500F013F880BD80B5FFF771
:103A8000F9FF80BD80B54FF48030FEF7EBFDFFF706
:103A900027F8002803D0FFE7FFF7F0FFFFE780BD1E
:103AA000704700007047000080B584B00146039065
:103AB000039802910190FFF767F8C0B2000946F63B
:103AC000EC21C0F60001085C019921FA00F004B075
:103AD00080BD000080B584B0014603900398029138
:103AE0000190FFF759F8800A46F6FC21C0F6000164
:103AF000085C019921FA00F004B080BD80B584B063
:103B000001460390039802910190FFF74DF8400B96
:103B100046F6FC21C0F60001085C019921FA00F08C
:103B200004B080BD80B582B000200190FFF744F85A
:103B300086460028CDF800E008D0FFE7009804286A
:103B40000AD0FFE7009808280CD010E042F20040AD
:103B5000C0F2F400019010E041F20020C0F27A00BF
:103B600001900AE0082000F00FF8019005E042F211
:103B70000040C0F2F4000190FFE7019802B080BD60
:103B800080B5FEF793F880BD80B58AB001460990F4
:103B900000200890079006900591FFF7DBF807904A
:103BA00007980028049005D0FFE70498B0F5800F2F
:103BB00006D00BE042F20040C0F2F40008900BE0A7
:103BC00041F20020C0F27A00089005E042F2004085
:103BD000C0F2F4000890FFE7099808281DD1FFE71C
:103BE00008980390FFF7AEF8DDF80CE0BEFBF0F0AC
:103BF0000290FFF7B7F8DDF808E00EFB00F0019047
:103C0000FFF7B8F8000C4FF0020E0EEB4000DDF8A5
:103C100004E0BEFBF0F00690FFE706980AB080BD16
:103C200080B582B0014601900198009100F082F9C0
:103C300002B080BD80B582B001460190019800912C
:103C400000F0F2F902B080BD2DE9F04F9BB0DDF835
:103C5000A8C0DDF8A4E0289C279D269E259FDDF8BE
:103C60009080994692468B460F90CDF868C0CDF86B
:103C700064E01894179516961597CDF85080139315
:103C8000129211910F991091109A1199129BDDF8CF
:103C90004CC0DDF850E0159C169D179E189FDDF86E
:103CA00064800E901A980D9068460C900D980B91B8
:103CB0000C998861C1F814800F61CE608D604C60F2
:103CC000C1F800E010460B991A466346CDF82890DB
:103CD000CDF824A0CDF820B000F022FA1BB0BDE84A
:103CE000F08F000080B586B013468C46864605905E
:103CF0008DF81310039205989DF81310039A029300
:103D0000CDF804C0CDF800E000F054FA06B080BD54
:103D100080B582B0014601900198009100F046FB09
:103D200002B080BD80B586B013468C4686460590AD
:103D30008DF81310039205989DF81310039A0293BF
:103D4000CDF804C0CDF800E000F028FC06B080BD3E
:103D500080B582B00146019001980091FFF760FFA5
:103D600002B080BD80B582B00146019001980091FB
:103D7000FFF760FF02B080BD2DE9F04F9BB0DDF88A
:103D8000A8C0DDF8A4E0289C279D269E259FDDF88D
:103D90009080994692468B460F90CDF868C0CDF83A
:103DA00064E01894179516961597CDF850801393E4
:103DB000129211910F991091109A1199129BDDF89E
:103DC0004CC0DDF850E0159C169D179E189FDDF83D
:103DD00064800E901A980D9068460C900D980B9187
:103DE0000C998861C1F814800F61CE608D604C60C1
:103DF000C1F800E010460B991A466346CDF82890AA
:103E0000CDF824A0CDF820B0FFF71EFF1BB0BDE811
:103E1000F08F000080B586B013468C46864605902C
:103E20008DF81310039205989DF81310039A0293CE
:103E3000CDF804C0CDF800E0FFF754FF06B080BD18
:103E400080B582B00146019001980091FFF760FFB4
:103E500002B080BD80B586B013468C46864605907C
:103E60008DF81310039205989DF81310039A02938E
:103E7000CDF804C0CDF800E0FFF754FF06B080BDD8
:103E800080B584B00A46034603908DF80B10039862
:103E9000006A43F20001C4F20101884201920093DA
:103EA00010D1FFE79DF80B00002805D0FFE74FF485
:103EB0008050FEF733FB04E04FF48050FEF7FAFA2F
:103EC000FFE733E00398006A43F60001C4F2000103
:103ED000884210D1FFE79DF80B00002805D0FFE7CE
:103EE0004FF48040FEF782FA04E04FF48040FEF782
:103EF0005DFAFFE719E00398006A43F60041C4F257
:103F00000001884210D1FFE79DF80B00002805D082
:103F1000FFE74FF40040FEF769FA04E04FF4004079
:103F2000FEF744FAFFE7FFE7FFE7FFE7002004B0F2
:103F300080BD000080B584B0014603900398006AFC
:103F4000002802910DD0FFE70398006AFEF7DEFF1C
:103F5000DDF80CE0002101907046FFF791FF009022
:103F6000FFE7039800F002F804B080BD80B592B07E
:103F700001461190002010900F900E900D900C9023
:103F80000B90119AD2690B920C900D900E90012219
:103F90000F921090119A92690BAB0A9010460991FA
:103FA00019460893FEF7A0FB119949690B911199E5
:103FB0000969079008460899FEF796FB1199496828
:103FC0000B9111990968069008460899FEF78CFB39
:103FD0001199C9680B91119989680590084608994B
:103FE000FEF782FB11998A69C96904901046FEF7B1
:103FF00093FC119801694069039008460399FEF704
:104000008BFC119801684068029008460299FEF7FF
:1040100083FC11988168C068019008460199FEF7F9
:104020007BFC0A9812B080BD80B592B00146119019
:104030001198806901220A9111460992FDF794FFB7
:10404000119800690999FDF78FFF11980068099987
:10405000FDF78AFF119880680999FDF785FF002018
:1040600010900F900E900D900C900B901199C969C3
:104070000B910C9003210D910E9009990F91119ABB
:10408000126B1092119A92690DF12C0E0890104645
:104090007146CDF81CE0FEF727FB02210C91119927
:1040A00049690B9111990969069008460799FEF72D
:1040B0001BFB119949680B911199096805900846F5
:1040C0000799FEF711FB1199C9680B91119989683D
:1040D000049008460799FEF707FB11998A69C96998
:1040E00003901046FEF718FC119801694069029090
:1040F00008460299FEF710FC11980168406801908B
:1041000008460199FEF708FC11988168C068009084
:1041100008460099FEF700FC089812B080BD000028
:104120002DE9F04F93B0DDF888C0DDF884E0209CE5
:104130001F9D1E9E1D9FDDF87080994692468B46FE
:104140000790CDF848C0CDF844E010940F950E9636
:104150000D97CDF830800B930A9209910799089139
:10416000089A126A06901046CDF81490CDF810A067
:10417000CDF80CB0FEF7CAFE08990122029008465D
:104180001146FFF77DFE0899096A09AA01900846C1
:104190001146FEF70FFF08990A6A496B0090104616
:1041A000FEF790FF0898006AFEF7F8FE002013B0B3
:1041B000BDE8F08F80B58AB013468C4686460890DD
:1041C0008DF81F1006920020059004900390089827
:1041D000C06B00280293CDF804C0CDF800E005D0F4
:1041E000FFE70898C06B80470490FFE7FFE7089857
:1041F000006AFEF73BFF002834D1FFE70898C06B48
:1042000000281ED0FFE70898C06B804705900598EE
:10421000DDF810E0704506D2FFE70498C043059929
:104220000844039004E005980499401A0390FFE7BE
:104230000398652804D3FFE702208DF8270071E07A
:104240000FE0059801300590059848F2A161C0F291
:104250000101884204D3FFE703208DF8270061E0C5
:10426000FFE7C4E70898006A9DF81F10FEF73CFFBF
:104270000898C06B002805D0FFE70898C06B8047FE
:10428000049002E000200590FFE7FFE70898006A2D
:10429000FEF7E2FE002834D1FFE70898C06B002843
:1042A0001ED0FFE70898C06B804705900598DDF8A1
:1042B00010E0704506D2FFE70498C0430599084412
:1042C000039004E005980499401A0390FFE70398CF
:1042D000652804D3FFE702208DF8270022E00FE0D5
:1042E000059801300590059848F2A161C0F20101DE
:1042F000884204D3FFE705208DF8270012E0FFE78E
:10430000C4E70698002809D0FFE70898006AFEF77E
:10431000C1FEDDF818E08EF80000FFE700208DF800
:104320002700FFE79DF827000AB080BD80B58AB05E
:1043300013468C46864609908DF8231007929DF807
:104340002300000600280693CDF814C0CDF810E035
:1043500009D4FFE70998016840680390084603996B
:10436000FEF770FA08E00998016840680290084674
:104370000299FEF7D1FAFFE70798002812D0FFE76D
:1043800009988168C068019008460199FEF73AFAD9
:10439000002806D0FFE70798017841F0010101707D
:1043A000FFE7FFE700200AB080BD000080B592B0B3
:1043B000014611901198806901220A9111460992D3
:1043C000FDF7D2FD119800690999FDF7CDFD11980F
:1043D00000680999FDF7C8FD119880680999FDF7F3
:1043E000C3FD002010900F900E900D900C900B903C
:1043F0001199C9690B9109990C9103220D920E90A4
:104400000F911090119A92690DF12C0E08901046A0
:104410007146CDF81CE0FEF767F9119949690B91D7
:1044200011990969069008460799FEF75DF91199F7
:1044300049680B9111990968059008460799FEF79C
:1044400053F91199C9680B9108990C91119A9268C6
:10445000049010460799FEF747F911998A69C969CE
:1044600003901046FEF758FA1198016940690290CE
:1044700008460299FEF750FA1198016840680190C9
:1044800008460199FEF748FA11988168C0680090C3
:1044900008460099FEF740FA089812B080BD000067
:1044A00080B58AB013468C46864609908DF8231055
:1044B0000792099890F8250000280693CDF814C0BB
:1044C000CDF810E006D1FFE7099890F82600002803
:1044D0000CD0FFE7099890F82500012830D1FFE7BC
:1044E000099890F8260001282AD1FFE70998016968
:1044F0004069039008460399FEF7A4F90998008DD6
:10450000012805DBFFE70998816B008D8847FFE7ED
:1045100009989DF82310079AFFF708FF09990A697F
:10452000496902901046FEF7F7F90998008D0128B5
:1045300005DBFFE70998816B008D8847FFE729E0DD
:10454000099801694069019008460199FEF7E4F96C
:104550000998008D012805DBFFE70998816B008D24
:104560008847FFE709989DF82310079AFFF7DEFEBA
:1045700009990A69496900901046FEF763F909989C
:10458000008D012805DBFFE70998816B008D8847C6
:10459000FFE7FFE700200AB080BD000080B58AB0C9
:1045A00013468C46864609908DF82310079200200A
:1045B0008DF81B00079800280593CDF810C0CDF8A2
:1045C0000CE004D0FFE7079800210170FFE700200E
:1045D0008DF81B00FFE79DF81B0007281CDCFFE798
:1045E0000798002805D0FFE7079801784900017077
:1045F000FFE709989DF82310079AFFF751FF9DF8F0
:10460000231049008DF823100290FFE79DF81B004E
:1046100001308DF81B00DEE7099890F8250000288E
:1046200009D1FFE70998016940690190084601999D
:10463000FEF708F908E0099801694069009008460A
:104640000099FEF769F9FFE700200AB080BD00007D
:104650007047000080B584B00A460346039002917B
:10466000039802990192009300F010F804B080BD05
:1046700080B584B00A4603460390029103980299DC
:1046800001920093FFF7E6FF04B080BD87B00A46B1
:104690000346069005910020049005980699C96884
:1046A00088420292019307D2FFE70698C068C04390
:1046B00005990844049005E005980699C968401AD0
:1046C0000490FFE70698C079013803900398069993
:1046D0008979642200FB021003900498B0F57A7F78
:1046E000C0F0C480FFE705980699C8600698017875
:1046F00001310170069800783D28C0F2B680FFE7CE
:1047000006984178013141700698002101700698A1
:1047100040783D28C0F2A880FFE7069881780131F3
:104720008170069800214170069880781928C0F29F
:104730009A80FFE70698C1780131C1700698017927
:104740000131017106980079082804DBFFE706981B
:1047500001210171FFE706980021817006984079D8
:10476000022851D1FFE7039848F21F51C5F2EB111F
:1047700050FB01F14A1102EBD171642201FB1200DE
:1047800000280CD0FFE70398C11700EB917121F0CE
:104790000301401A01210028009113D0FFE703987C
:1047A00048F21F51C5F2EB1150FB01F1CA1102EBA7
:1047B000D1714FF4C87201FB1200B0FA80F04009C9
:1047C0000090FFE70098C00700280ED0FFE706988A
:1047D000C0781E2808DBFFE706980021C170069804
:1047E000417901314171FFE70DE00698C0781D283D
:1047F00008DBFFE706980021C17006984179013176
:104800004171FFE7FFE72DE00698C178407946F651
:104810000C32C0F60002105C814222DDFFE70698F0
:104820000021C170069841790131417106984079A3
:104830000D2815DBFFE70698012141710698817963
:104840000131817106988079652808DBFFE70698B9
:10485000C1790131C171069800218171FFE7FFE73D
:10486000FFE7FFE7FFE7FFE7FFE7FFE707B0704776
:1048700080B500F045F880BD80B582B0014601905A
:104880000198009100F088F802B080BD80B500F07A
:10489000DBF880BD80B500F0E7F880BD80B500F0A2
:1048A00031F980BD80B582B0014601900198009138
:1048B00000F092F902B080BD80B5FFF7D9FF80BD4E
:1048C00080B582B00146019001980091FFF7D4FFB6
:1048D00002B080BD80B5FFF7D9FF80BD80B5FFF77E
:1048E000D9FF80BD80B5FFF7D9FF80BD80B582B00C
:1048F0000146019001980091FFF7D4FF02B080BDFE
:1049000083B04EF21000CEF200000068400700288D
:104910001DD5FFE74EF21400CEF20000006840F211
:104920000001C2F20001096844F6D352C1F26202EA
:10493000A1FB02124FF0FF3303EB92129042019160
:1049400004D0FFE701208DF80B0021E01CE04EF2BF
:104950001400CEF20000006840F20001C2F2000133
:10496000096844F6D352C1F26202A1FB02124FF071
:10497000FF3303EB52229042009104D0FFE7012065
:104980008DF80B0004E0FFE700208DF80B00FFE737
:104990009DF80B0003B0704780B588B001460790C2
:1049A0004EF21800CEF2000000680690069840F221
:1049B0000002C2F2000212684DF68363C4F21B3398
:1049C000A2FB03239B0CB0FBF3F005900598022893
:1049D0000491039211D3FFE7059800F0FDF8DDF88C
:1049E0001CE0AEF1010ECDF81CE0DDF814E0CEF5D0
:1049F000757ECDF818E00290FFE7079840F2240199
:104A0000C2F2000109684860FFE740F22400C2F2E8
:104A1000000000684068002804D0FFE7FDF762FC52
:104A20000190F2E7069802280AD3FFE70698C0082B
:104A30007C2805D8FFE7069800F0CEF80090FFE745
:104A4000002008B080BD000040F22400C2F2000047
:104A5000006800687047000080B582B0FFF73EFF35
:104A6000019002B080BD000080B540F22400C2F287
:104A7000000001680A6801320A60006800680028C6
:104A800009D1FFE740F22400C2F20000006881680B
:104A900001318160FFE740F22400C2F200000068AB
:104AA0000069002808D0FFE740F22400C2F20000AD
:104AB000006800698047FFE740F22400C2F200006E
:104AC0000068C068002808D0FFE740F22400C2F266
:104AD00000000068C0688047FFE740F22400C2F28F
:104AE000000000684068002809D0FFE740F2240079
:104AF000C2F200000068416801394160FFE7002010
:104B000080BD000080B586B040F22400C2F20000F3
:104B100001680590084600F043F8049000F052F850
:104B200040F20001C2F2000109684FF47A7E03905E
:104B300008467146FDF7AAFF032001F08FFA01F045
:104B4000EBF90F214FF0000E7246CDF808E0FEF7AA
:104B5000B7FE4FF0FF3101900846019901F012FABB
:104B600000F014F840F22C01C2F2000101220A7098
:104B700005990A6842F2C51EC0F6000EC2F80CE0A4
:104B8000029A0090104606B080BD00004EF2100060
:104B9000CEF20000016841F0020101600020704780
:104BA00082B00146019001980022026001984260A3
:104BB000019882600198C2600198026110460091DC
:104BC00002B070474EF21000CEF20000016821F0F2
:104BD000020101600020704788B0014607900798E5
:104BE00040F20002C2F2000212684DF68363C4F282
:104BF0001B33A2FB03239B0C584306904EF2180074
:104C0000CEF20000006805900020049003904EF260
:104C10001400CEF20000006802900798C0087C28BB
:104C2000019100922CD8FFE7FFE74EF21800CEF278
:104C30000000006804900598049988421ED0FFE7A0
:104C400004980599884207D2FFE705980499401A0D
:104C500003990844039008E002980499401A0599C2
:104C60000844039908440390FFE7049805900398CB
:104C70000699884201D3FFE701E0FFE7D5E7FFE7A8
:104C8000002008B07047000080B58AB000208DF881
:104C90002700089000F048F8FEF792FEFEF760FD4E
:104CA000FDF772F9FFF71EFE0790FCF7C7FF40F211
:104CB0001C00C2F200000068EE460899CEF8001011
:104CC00041F6F961C0F6000141F6E562C0F6000266
:104CD00044F6D50EC0F6000E7346CDF818E0FBF78B
:104CE00041FD40F22801C2F2000109686A46069BB4
:104CF000D360DDF820E0C2F808E040F2407CC2F268
:104D0000000CC2F804C040F20C7CC2F800C040F2B3
:104D10003402C2F20002059008466146734600F074
:104D2000C1FA04900AB080BD80B584B00520FDF7BB
:104D3000CBFCFDF7C1FC052808D0FFE746F6843020
:104D4000C0F60000112101F0B9F8FFE74FF48040F0
:104D5000FDF7CEFEFDF75EFFFFE7FDF76FFF0128D1
:104D600001D0FFE7F9E7FDF781FFFFE7FDF788FFD7
:104D7000012801D0FFE7F9E7FDF7A8FEFDF7FAFEED
:104D8000FEF708F84FF44070FEF73EF84FF40020AD
:104D9000FEF74AF8FDF7E4FE4FF480004FF0040EF2
:104DA000A8210023039002917146029ACDF804E0F5
:104DB000FDF794FF4FF0E06303980199029AFDF725
:104DC00067FFFDF7B5FFFFE7FDF7DCFF012801D026
:104DD000FFE7F9E70020FDF7E7FF4FF4A050FDF7EC
:104DE000F3FF4FF40040FDF7FFFF0220FEF72CF821
:104DF000FFE7FDF7E9FE082801D0FFE7F9E7042007
:104E0000FEF784F947F60020C0F60320FEF79AF972
:104E1000FDF748FCFDF732FCFDF73AFC04B080BD1D
:104E20004EF68850CEF20000016841F47001016036
:104E300043F60000C4F20200016841F00101016084
:104E400043F60801C4F2020100220A6001684FF62D
:104E5000FF73CFF6F6631940016043F60401C4F214
:104E6000020143F21003C2F200430B60016821F417
:104E70008021016043F60C00C4F2020002604EF68D
:104E80000850CEF200004FF0006101607047000052
:104E900080B5FCF75FFF80BD80B586B040F228008A
:104EA000C2F2000000688069FEF73EFB002825D0B2
:104EB000FFE740F22800C2F2000000688069FEF7B8
:104EC0006FFB00281AD0FFE740F22800C2F2000072
:104ED000006841F20001C4F2010105900846049106
:104EE000FEF790FB059903900846039900F0B6F988
:104EF000049902900846FEF7A1F9FFE740F2280066
:104F0000C2F2000000688069FEF72CFB002814D074
:104F1000FFE740F22800C2F2000000688069FEF757
:104F20005DFB002809D0FFE740F22800C2F2000034
:104F3000006800F0ADF90190FFE740F22800C2F2EE
:104F4000000000688069FEF7F9FA00281BD0FFE72F
:104F500040F22800C2F2000000688069FEF72AFBD8
:104F6000002810D0FFE740F22800C2F200000068DD
:104F700000F084F941F2000EC4F2010E0090704678
:104F8000FEF766F9FFE706B080BD000080B59EB071
:104F900001461D900020C4F2020001220F900E91E4
:104FA00011460D92FCF7E0FF00201C901B901A9018
:104FB00019901890179002211891032219921A90B3
:104FC0000D9A1B924FF4C06ECDF85CE04FF0070EC7
:104FD000CDF870E00DF15C0E0F9B0C9018460B9114
:104FE0007146FDF781FB41F20001C4F201010A9014
:104FF00008460991FEF750F90999089008460D995D
:1050000000F0E8F90C9916911591149113911291F1
:10501000119110914FF4E13210921191129113916C
:105020000C2214921591169110A9099A0790104616
:10503000FEF7E8F9099906900846FEF71DF900F019
:1050400073FF0B990C9AFEF77BFC2521059008460F
:10505000059A0491114600F0BBFF049800F038FF58
:105060000998FEF7B7F90998FEF7A8F91D980F9966
:10507000C1601D984FF4007282601D98099A826188
:105080001D980B9B03701D98C06D002806D0FFE78C
:105090001D98642141651D98416305E01D9800211C
:1050A00041651D984163FFE71D98002141771D98D8
:1050B000552242701D985A2282701D98039100F06B
:1050C0004BF91D9902900846039900F063FA1D9967
:1050D00046F69E32C0F6000201900846114600F0E6
:1050E00089FD03981EB080BD82B00146019000206A
:1050F000009102B07047000082B00146019000208C
:10510000009102B0704700002DE9F0418AB0DDF84F
:1051100044C0DDF840E01C4615460E46074609909F
:105120008DF823108DF822208DF821308DF820E0A5
:105130008DF81FC009989DF823109DF822209DF836
:1051400021309DF820C09DF81FE0E846C8F804E033
:10515000C8F800C0069405950496039700F0EAF994
:105160000AB0BDE8F081000080B584B00A4603466D
:1051700003908DF80B1003989DF80B10019200938B
:1051800000F0DCFB04B080BD80B582B00146019028
:105190000198009100F0F6FB02B080BD80B582B0AE
:1051A000014601900198009100F028FC02B080BDFA
:1051B0002DE9F04F91B0DDF874C0DDF870E01B9C74
:1051C0001A9D1E461746884681461090ADF83E103F
:1051D0000E928DF83730ADF834508DF833E0002062
:1051E0008DF832001098BDF83E100E9A9DF83730B9
:1051F000BDF834E01B9D9DF833A0DDF874B00B9032
:105200006846C0F80CB0C0F808A04560C0F800E0DF
:105210000B98CDF828C0099408960797CDF8188008
:10522000CDF8149000F04AFC8DF832009DF8320061
:1052300000280DD1FFE7FCF7FDFC002807D0FFE7B1
:105240001098002180F83D1010984177FFE7FFE7A4
:105250009DF8320011B0BDE8F08F000080B584B039
:105260000A46034603908DF80B1003989DF80B1027
:1052700001920093FFF778FF04B080BD80B582B043
:105280000146019001980091FFF77EFF02B080BDBA
:1052900080B582B00146019001980091FFF77EFF32
:1052A00002B080BD2DE9F04F95B0DDF884C0DDF887
:1052B00080E01F9C1E9D1E4617468846814614901E
:1052C000ADF84E1012928DF84730ADF844508DF87D
:1052D00043E000208DF842001499BDF84E20129B47
:1052E0009DF847E0BDF84450DDF87CA09DF843B040
:1052F0000F9021980E9068460D900E980C910D9984
:10530000C860C1F808B0C1F804A00D600C9811463F
:105310001A467346CDF82CC00A9409960897CDF822
:105320001C80CDF81890FFF743FF8DF842001498C9
:10533000694605224A6004220A6003210F9A0591FA
:105340001146059A059BFFF7DFFE8DF842009DF898
:10535000420015B0BDE8F08F80B584B00A46034620
:1053600003908DF80B100398406900280192009378
:1053700012D0FFE79DF80B00012806D1FFE7039844
:1053800001694069FDF76CFA05E00398016940691D
:10539000FDF7CEFAFFE7FFE7002004B080BD000074
:1053A00084B00A46034603908DF80B109DF80B005D
:1053B00000280192009305D0FFE70398002180F8B0
:1053C0004A1004E00398002180F82A10FFE700202B
:1053D00004B0704780B586B00A46034604908DF845
:1053E0000F10049841F20001C4F2010188420292B8
:1053F000019311D1FFE79DF80F00002804D0FFE7CB
:105400001020FDF79FF803E01020FDF763F8FFE799
:1054100000208DF8170088E0049844F20041C4F29F
:105420000001884213D1FFE79DF80F00002805D046
:10543000FFE74FF40030FCF7EDFF04E04FF40030DD
:10544000FCF7C4FFFFE700208DF817006DE004981B
:1054500044F60001C4F20001884213D1FFE79DF831
:105460000F00002805D0FFE74FF48020FCF7D2FFA3
:1054700004E04FF48020FCF7A9FFFFE700208DF83F
:10548000170052E0049841F20041C4F20101884241
:1054900011D1FFE79DF80F00002804D0FFE720207E
:1054A000FDF750F803E02020FDF714F8FFE7002097
:1054B0008DF8170039E0049844F60041C4F2000169
:1054C000884213D1FFE79DF80F00002805D0FFE7C1
:1054D0004FF40020FCF79EFF04E04FF40020FCF79F
:1054E00075FFFFE700208DF817001EE0049845F2D5
:1054F0000001C4F20001884213D1FFE79DF80F00BC
:10550000002805D0FFE74FF48010FCF783FF04E08C
:105510004FF48010FCF75AFFFFE700208DF81700CA
:1055200003E001208DF81700FFE79DF8170006B093
:1055300080BD0000F0B587B0DDF834C0DDF830E0A4
:105540001C4615460E46074606908DF817108DF836
:1055500016208DF815308DF814E08DF813C09DF8E5
:1055600017000699C8709DF81600069908719DF8F5
:105570001500069948719DF81400069988719DF8E8
:1055800013000699C87100200394029501960097B4
:1055900007B0F0BD80B584B00A46034603908DF88D
:1055A0000B100398C06800280192009314D0FFE705
:1055B0009DF80B00012807D1FFE703988168C068B8
:1055C0000222FDF7E1F906E003988168C068002235
:1055D000FDF7DAF9FFE7FFE7002004B080BD000027
:1055E00080B58CB00A4603460B908DF82B109DF8C1
:1055F0002B0040F64C61C2F2000108700B9890F845
:105600003F000146042809920893079100F2CE80DA
:105610000799DFE801F00330528CCA000B98B0F80C
:105620004400002826D1FFE70B98407840F64C61F3
:10563000C2F20001097888421BD1FFE740F64C60B6
:10564000C2F2000000780B99896D08700B98012157
:1056500080F83F100B98A0F846100B98069100F0C8
:10566000CDFB0B99059008460699FFF799FE04902B
:10567000FFE7FFE79BE040F64C60C2F200000178D4
:105680000B9A926D517000780B99A1F842000B981B
:10569000B0F842100902A0F842100B98022180F8DD
:1056A0003F100B98B0F846100131A0F846100B9847
:1056B000012100F0A3FB039079E040F64C60C2F2B8
:1056C000000001780B9A926D917000780B99B1F8F7
:1056D00042201044A1F842000B98B0F84610013166
:1056E000A0F846100B98B0F84200012814DBFFE741
:1056F0000B98B0F842000B99B1F8481088420BDAC9
:10570000FFE70B98B0F842000B99A1F846000B9800
:10571000032180F83F1004E00B98002180F83F102F
:10572000FFE70B98012100F069FB02903FE040F693
:105730004C60C2F2000000780B998A6DB1F84410F9
:105740001144C8700B98B0F844100131A0F844100F
:105750000B98B0F846100131A0F846100B98B0F83D
:1057600044000B99B1F84810884205DBFFE70B981D
:105770000021A0F84410FFE70B98012100F03EFB48
:105780000B99B1F84410DDF82CE0BEF842E0714509
:10579000019009DBFFE70B98042180F83F100B987C
:1057A000012180F83E10FFE701E000E0FFE7002064
:1057B0000CB080BD80B58AB00A46034609908DF8CA
:1057C00023109DF8230040F64D61C2F200010870DD
:1057D000099890F83F000146032807920693059127
:1057E00000F2A7800599DFE801F0022F65A3099870
:1057F000B0F84400002826D1FFE70998407840F629
:105800004D61C2F20001097888421BD1FFE740F6E2
:105810004D60C2F2000000780999896D08700998FE
:10582000012180F83F100998A0F8461009980491CA
:1058300000F0E4FA0999039008460499FFF7B0FDD7
:105840000290FFE7FFE775E040F64D60C2F200000E
:105850000078012823DBFFE740F64D60C2F200002C
:1058600000780999B1F84810C9B2884217DAFFE701
:1058700040F64D60C2F200000178099A926D5170B5
:1058800000780999A1F842000998B0F84610013152
:10589000A0F846100998022180F83F1004E009980A
:1058A000002180F83F10FFE70998012100F0A6FAD7
:1058B00001903FE040F64D60C2F200000078099987
:1058C0008A6DB1F84410114488700998B0F84410FA
:1058D0000131A0F844100998B0F846100131A0F841
:1058E00046100998B0F844000999B1F84810884268
:1058F00005DBFFE709980021A0F84410FFE70998AD
:10590000012100F07BFA0999B1F84410DDF824E098
:10591000BEF842E07145009009DBFFE709980321DA
:1059200080F83F100998012180F83E10FFE701E060
:1059300000E0FFE700200AB080BD000080B586B01F
:105940000A46034604908DF80F100498B0F84800FA
:10595000FE280292019308DCFFE704989DF80F10DF
:10596000FFF728FF8DF8170007E004989DF80F1047
:10597000FFF736FE8DF81700FFE79DF8170006B019
:1059800080BD000080B584B0014603900398406953
:10599000002802910ED0FFE70398C07F002809D1AC
:1059A000FFE7039880690D21FDF7C0FE03980121F0
:1059B000C1771FE00398406900280ED0FFE70398E5
:1059C000C07F012809D1FFE7039880690A21FDF70C
:1059D000ADFE03980221C1770BE003980021C17747
:1059E00003988069FDF7D2FC039800F035FA019026
:1059F000FFE7FFE7002004B080BD000080B586B05F
:105A0000014605900598408C0028049143D0FFE79B
:105A10000598808C0599498C884236D0FFE7059817
:105A20008169826B808C105C039008460399FDF7B6
:105A30007DFE0598818C013181840598808C0599C3
:105A4000098D884204DBFFE7059800218184FFE788
:105A50000598808C0599498C884215DBFFE70598ED
:105A6000C08C012810DBFFE70598808C0599C98C54
:105A7000884209DBFFE705988069FDF793FC0598EC
:105A80008069FDF7B3FCFFE704E005988069FDF746
:105A900089FCFFE708E005988069FDF783FC05981D
:105AA00000F0DAF90290FFE705980021019100F07B
:105AB000A5F901990090084606B080BD2DE9F04394
:105AC00091B0DDF86CC0DDF868E0199C189D1E46A9
:105AD0001746884681460F90ADF83A100D928DF822
